:020000040800F2
:1000000098EA0120C96A0008F5060008F70600080A
:10001000FB060008FF0600080307000800000000B8
:1000200000000000000000000000000007070008BA
:1000300009070008000000000B0700080D07000872
:10004000E36A0008E36A0008E36A0008E36A00085C
:10005000E36A0008E36A0008E36A0008E36A00084C
:10006000E36A0008E36A0008E36A0008E36A00083C
:10007000E36A0008E36A0008E36A0008E36A00082C
:10008000E36A0008E36A0008E36A0008E36A00081C
:10009000E36A0008E36A0008E36A0008E36A00080C
:1000A000E36A0008E36A0008E36A0008E36A0008FC
:1000B000E36A0008DD160008458C0008E36A0008C2
:1000C000E36A0008E36A0008E36A0008E36A0008DC
:1000D000E36A00083F6A0008E36A0008E36A000870
:1000E000E36A0008E36A0008E36A0008E36A0008BC
:1000F000E36A0008E36A0008E36A0008E36A0008AC
:10010000E36A0008E36A0008E36A0008E36A00089B
:10011000E36A0008E36A0008E36A0008E36A00088B
:10012000E36A0008E36A0008E36A0008E36A00087B
:10013000E36A0008E36A0008E36A0008E36A00086B
:10014000E36A0008E36A0008E36A0008E36A00085B
:10015000E36A0008E36A0008E36A0008E36A00084B
:10016000E36A0008E36A0008E36A0008E36A00083B
:10017000E36A0008E36A0008650A0008E36A000809
:10018000E36A0008E36A000800F002F800F06DF886
:100190000AA090E8000C82448344AAF10107DA45E2
:1001A00001D100F062F8AFF2090EBAE80F0013F0C7
:1001B000010F18BFFB1A43F00103184740BF0000AE
:1001C00060BF00000A444FF0000C10F8013B13F030
:1001D000070408BF10F8014B1D1108BF10F8015BA0
:1001E000641E05D010F8016B641E01F8016BF9D193
:1001F00013F0080F1EBF10F8014BAD1C0C1B09D1EA
:100200006D1E58BF01F801CBFAD505E014F8016B5B
:1002100001F8016B6D1EF9D59142D6D370470000ED
:100220000023002400250026103A28BF78C1FBD8FF
:10023000520728BF30C148BF0B607047642909F0DE
:10024000D382752909F0D082782909F009836329BE
:1002500009F05D84732909F06284002070471FB59E
:100260000AF018F81FBD10B510BD09F08BFC11463F
:10027000FFF7F5FF00F0DBF809F0A9FC03B4FFF786
:10028000F2FF03BC06F07CFB30BF72B6704762B66B
:10029000704780F308887047F648007848B3F648FE
:1002A0000078B0B9F548006820F00100F349086013
:1002B00000BFF248006800F001000028F9D1EF48C3
:1002C000001D0068C0F10200ED4908600120EA4904
:1002D0000870E948007802280BD1E849091D086038
:1002E000081F006840F00100091F08600020E24973
:1002F000087070470146C80AE24A1080C1F34510F1
:10030000E14A108001F01F00E04A1080DE480088BA
:1003100040F265225043DB4A128840F23D135A43B3
:1003200000EB4200D94A128802EB4203C3EB4212AF
:1003300000EBC200D64A108010460088704710B506
:100340002DED088B0446E00ACE490880C4F3451021
:10035000CD49088004F01F00CC490880CA480088B5
:1003600040F265214843C749098840F23D12514394
:1003700000EB4100C549098801EB4102C2EB411184
:1003800000EBC100C3490880BE48008806282CDD68
:10039000BD48008809F011FD41EC1B0B9FEDBE0B21
:1003A00053EC102B09F058FD41EC190BB5480088AF
:1003B00009F003FD41EC1A0B53EC192B09F080FEF8
:1003C00041EC180B9FEDB60B53EC102B09F042FEDD
:1003D0000BD2AC480088AD490988401A062804DDD4
:1003E0004FF6FF70AB49088002E00020A949088061
:1003F000A8480088BDEC088B10BD10B50246CB1292
:10040000DB028C1243EA441343EAE120904202DB10
:100410004FF6FF7000E0002010BD10B502460B1231
:10042000934202DB4FF6FF7000E0002010BD1CB5C8
:1004300000BF00BF4FF4A06006F066FB0723022256
:1004400008214FF4A87006F053FAA82005F0EAFF3F
:100450004FF4E13006F0A1FA4FF4E1312A2001F027
:10046000CFF800F05DFA02F029F800F079FAC72120
:1004700040F6B73005F086FF4FF478408A4908808F
:100480008AA010210B46C822CDE900100A211E20A7
:1004900005F045FF18E08AA010210B46F022CDE9B7
:1004A00000101E21084605F03AFFC82006F01CF88F
:1004B0004FF6FF70AA23EF22822100901E2005F044
:1004C00095FCC82006F010F800F06EFC0028E2D180
:1004D0007FA010210B46C822CDE900101E2108463E
:1004E00005F01DFF4FF4FA7005F0FEFF4FF6FF70A8
:1004F00001F0B2FF4FF478406B49088000F01FFB19
:100500000123022247F65001744800F0C7FA4FF465
:100510008C71DC2000F070FE40F6AB10704948632F
:10052000A7E04FF000084FF6FF790A2005F0DCFF46
:1005300000F0CFFC00F0B5FB00F0C7FB4FF48C736C
:10054000DC220021084601F076FE01F024F90020AB
:100550006449086064490860002433E05F4830F86B
:10056000240086B25D4850F82400050C3046FFF7A1
:10057000E6FE06464FF6FF7086420ED1DC2094FB65
:10058000F0F100FB114057490968084455490860DB
:1005900055480068401C544908604FF6FF7085427A
:1005A0000ED1DC2094FBF0F100FB11404D490968AD
:1005B00008444C4908604C480068401C4A4908609F
:1005C000A01C84B246F660508442C7DB47A01021CD
:1005D0000B463022CDE90010C8210A2005F09FFE0D
:1005E0004048006840490968B0FBF1F71020062335
:1005F0003A46C82100903B2005F0D9FD39480068F3
:1006000039490968B0FBF1F0782809D93448406BC2
:100610000A30334948634FF4967005F065FF15E0E2
:100620003048006830490968B0FBF1F05A2809D217
:100630002B48406B0A382A4948634FF4967005F0FE
:1006400053FF03E040F6AB10254948631020082310
:1006500000902448F0210268502005F0A8FD1020E9
:10066000062300902048A0210268502005F09FFD3D
:1006700000BF56E700000020100000202864024060
:100680000C0000202400002026000020280000206C
:100690002C0000202E000020000000000000E03FA1
:1006A0000000000000001840460000204578706CF3
:1006B0006F7265722053544D33324634000000008F
:1006C0004F5632363430204552524F52000000000F
:1006D0004F5632363430204F4B00000020020020AD
:1006E00000200040140000201C0000207765697A7B
:1006F00068693A00704700BFFEE700BFFEE700BF31
:10070000FEE700BFFEE77047704770477047000084
:100710000CB50020019000907648006840F48030CD
:100720007449086000BF7348006800F4003000900E
:100730000198401C0190009818B90198B0F5A04F9D
:10074000F1D16C48006800F4003010B10120009035
:1007500001E0002000900098012846D16548403013
:10076000006840F08050634940310860624800688A
:1007700040F44040604908605E48083000685D49C8
:10078000083108600846006840F4004008600846E8
:10079000006840F4A05008605848091F0860081F0E
:1007A000006840F08070091F086000BF5148006871
:1007B00000F000700028F9D040F205705049086040
:1007C0004C480830006820F003004A4908310860AE
:1007D0000846006840F00200086000BF4548083045
:1007E000006800F00C000828F8D10CBD10B5454891
:1007F000006840F47000434908603E48006840F0DB
:1008000001003C49086000203A4908310860394835
:1008100000683D490840374908603C48091D0860A8
:10082000081F006820F48020091F0860002031495B
:100830000C310860FFF76CFF4FF0006031498039E0
:10084000086010BD70B500200022022300240221A0
:10085000284D08352D6805F00C0020B1042806D07D
:10086000082834D107E02A4D2A4E356033E02A4D5E
:10087000284E35602FE01F4D2D1D2D68C5F3805487
:100880001C4D2D1D2D6805F03F0154B1224DB5FBC7
:10089000F1F5184E361D3668C6F3881605FB06F2CC
:1008A00009E01B4DB5FBF1F5124E361D3668C6F357
:1008B000881605FB06F20F4D2D1D2D68C5F3014569
:1008C0006D1C6B00B2FBF3F5124E356003E0104D6A
:1008D000104E356000BF00BF064D08352D68C5F3CA
:1008E00003150E4E705D0B4D2D68C540094E3560E9
:1008F00070BD0000003802400070004008544007FE
:10090000003C024088ED00E0FFFFF6FE10300024BE
:100910000024F4003000002000127A00340000208F
:100920001CB50121202006F083FC4FF4C06000902C
:1009300001208DF8040000208DF8060003208DF8BA
:10094000050001208DF807006946044806F0D2F939
:100950004FF4C061014806F049FA1CBD0014024082
:100960001CB50121112006F063FC1C200090002022
:100970008DF8040003208DF8050001208DF8070094
:100980006946354806F0B6F90120009002208DF83E
:1009900007006946314806F0ADF91CBD10B50446A4
:1009A00014B101202E4908702D480078002837D056
:1009B0001021294806F000FA78B10821264806F0EF
:1009C000FBF950B10421244806F0F6F928B10121C1
:1009D000224806F0F1F9012822D10A2005F084FD11
:1009E00000201F49087010211B4806F0E5F908B9DE
:1009F000012010BD0821184806F0DEF908B90220D0
:100A0000F7E70421144806F0D7F908B90320F0E706
:100A10000121124806F0D0F901281BD10420E8E793
:100A200010210D4806F0C8F9012813D108210A4801
:100A300006F0C2F901280DD10421074806F0BCF9DF
:100A4000012807D10121054806F0B6F910B90120A7
:100A5000034908700020CCE700100240000002406B
:100A60004400002010B5C748006900F00100A0B1A3
:100A7000FFF712FCC348406940F00100C1494861DA
:100A8000C148006808B9012000E00020BE490860A4
:100A9000BE480078401CBD49087010BD30B5BC4C44
:100AA000246844F48004BA4D2C6000BFB94C24681B
:100AB00004F00104002CF9D1B64C203C246844F425
:100AC0007464B44D203D2C602124B24D14352C604B
:100AD000AC4C2834AF4D08352C602C1D20602C1FE9
:100AE00021600024AB4D2C602C4624682C602C46E1
:100AF000246844F480742C602C4624682C602C46B6
:100B0000246844EA83242C602C46246844F48054EE
:100B10002C602C46246844EA42342C602C4624681D
:100B200044F400342C602C4624682C602C46246845
:100B30002C602C46246844F000742C6030BD1CB539
:100B40009348006840F00100914908600846006839
:100B500040F0020008600846006840F004000860A9
:100B60000846006840F010000860081D006840F06A
:100B70000100091D08600120032100230222CDE9A4
:100B800000105021844805F095FD01200321002329
:100B90000222CDE90010C021804805F08BFD012024
:100BA000032100230222CDE900104FF43C617C4870
:100BB00005F080FD0120032100230222CDE9001071
:100BC0006021784805F076FD0D220421724805F079
:100BD00051FD0D220621704805F04CFD0D22072124
:100BE0006E4805F047FD0D2206216D4805F042FDD7
:100BF0000D2207216A4805F03DFD0D2208216848B5
:100C000005F038FD0D220921654805F033FD0D2260
:100C10000B21634805F02EFD0D2206215F4805F0EB
:100C200029FD0D2205215F4805F024FD0D22062136
:100C30005C4805F01FFD002052490860C8601F2075
:100C4000486100208861C8610862486208460068FF
:100C500008600846006808600846006808600846A2
:100C6000006840F0200008600846006808600846F8
:100C70000068086008460068086008460068086068
:100C80000846C06840F00100C8600846006840F4AB
:100C90008040086002234E220021084605F05CFCDB
:100CA0001CBD10B50021084600F092FD00F073FD58
:100CB0003848006840F00100364908603148006853
:100CC00040F001002F49086010BD2E48006820F058
:100CD00001002C49086000BF2A48006800F00100AC
:100CE0000028F9D12B48006820F00100294908604C
:100CF00070472DE9F04106460F4614461D46FFF7A2
:100D0000E4FF4FF6FF7001F0A7FB2B462246394661
:100D1000304601F090FA2946204600F06DFA002195
:100D2000084600F055FD00F036FD1A48006840F016
:100D30000100184908601348006840F0010011499B
:100D40000860BDE8F08110B500230E4C23602346F7
:100D50001B6843EA4013236023461B6843EA811360
:100D6000236023461B6843EAC213236023461B68A3
:100D700043F48043236023461B6843F00103236050
:100D800010BD000000000550A8824242450000202E
:100D90003038024028640240000002400004024053
:100DA00000080240001002407CB5002501214020CF
:100DB00006F03EFA4FF40240009001208DF8040046
:100DC00000208DF8060002208DF8050001208DF826
:100DD00007006946FA4805F08DFF0020F9490860D0
:100DE0000A2005F081FB0020F749C1F8BC020A2067
:100DF00005F07AFB0120F3491831086000F0C6FACB
:100E00000121FF2000F0B0FB8021122000F0ACFB9C
:100E1000322005F069FB1C2000F0C5FB04464FF6AC
:100E2000FF7000EA04241D2000F0BDFB044347F6D8
:100E3000A270844205D02146E4A008F079FC01208C
:100E40007CBD0A2000F0AFFB04464FF6FF7000EABD
:100E500004240B2000F0A7FB044342F242608442CA
:100E600005D02146DCA008F063FC0220E8E700255D
:100E70000AE0DC4A02EB45025178DA4A12F8150022
:100E800000F072FB681C85B2B22DF2D30020D7E7C8
:100E900010B5002400BF0AE0D34A02EB44025178A7
:100EA000D14A12F8140000F05FFB601C84B2082CD9
:100EB000F2D300240AE0CD4A02EB44025178CB4A37
:100EC00012F8140000F050FB601C84B2072CF2D31F
:100ED00010BD10B5002400BF0AE0C54A02EB440271
:100EE0005178C34A12F8140000F03EFB601C84B233
:100EF0000E2CF2D310BD70B50546BE4800EBC506FA
:100F0000002409E0012202EB4402B15C16F814004F
:100F100000F02AFB601CC4B2042CF3DB70BD2DE989
:100F2000F04104465E254126542734B1022C0ED0F0
:100F3000032C10D0042C16D111E00021FF2000F06A
:100F400013FB1021C72000F00FFBBDE8F0816525E1
:100F500041264F2707E052254126662703E0422518
:100F60003F26712700BF00BF0021FF2000F0FCFAE0
:100F70004021C72000F0F8FA2946CC2000F0F4FA0E
:100F80003146CD2000F0F0FA3946CE2000F0ECFAE0
:100F900000BFDAE770B50446A01C082141EA001042
:100FA000C5B20021FF2000F0DFFA00217C2000F014
:100FB000DBFA02217D2000F0D7FA03217C2000F02B
:100FC000D3FA29467D2000F0CFFA29467D2000F093
:100FD000CBFA70BD10B504460021FF2000F0C4FA22
:100FE00000217C2000F0C0FA04217D2000F0BCFA32
:100FF00009217C2000F0B8FA2007010E7D2000F0C6
:10100000B3FA00217D2000F0AFFA10BD70B50446A0
:101010002025202634B1012C07D0032C08D0042C25
:101020000CD108E01825342608E01C252A2605E006
:101030002425162602E028250C2600BF00BF00212B
:10104000FF2000F091FA00217C2000F08DFA0421AD
:101050007D2000F089FA07217C2000F085FA20210C
:101060007D2000F081FA29467D2000F07DFA31468E
:101070007D2000F079FA06217D2000F075FA70BD20
:101080002DE9F0410446002580268027072C19D23F
:10109000DFE804F0180406080C101400402511E0E5
:1010A00018250FE018254026C0270BE018254026FC
:1010B000402707E01825A026402703E018254026F2
:1010C000A62700BF00BF0021FF2000F04DFA00213D
:1010D0007C2000F049FA29467D2000F045FA0521E0
:1010E0007C2000F041FA31467D2000F03DFA39467F
:1010F0007D2000F039FABDE8F08170B50546012188
:10110000FF2000F031FA122000F04DFA044624F0DE
:1011100002040DB144F002042146122000F024FA2A
:1011200070BD2DE9F04705460E46174698463846ED
:1011300007EBD07105EB61011FFA81F9404608EB1E
:10114000D07106EB61011FFA81FA0121FF2000F046
:101150000BFA032000F027FA044604F0F0040AF02A
:101160000301304661F39F0004432146032000F051
:10117000FBF9C6F38701192000F0F6F9CAF38701DD
:101180001A2000F0F1F9322000F00DFA044604F0C4
:10119000C00409F00701284661F3DF00044321463B
:1011A000322000F0E1F9C5F3C701172000F0DCF9A7
:1011B000C9F3C701182000F0D7F9BDE8F087000097
:1011C00000180240A4024342000043424D49443A01
:1011D00025640D0A000000004849443A25640D0AC0
:1011E000000000009EA200088EA5000864A500086B
:1011F00072A500089EA500082DE9F04104460D46A1
:10120000E11704EB91718910A4EB810111B1012068
:10121000BDE8F081E91705EB91718910A5EB81011B
:1012200009B10220F4E72046E11704EB9171C1F304
:101230008F072846E91705EB9171C1F38F0600214E
:10124000FF2000F091F90421E02000F08DF9F9B2BF
:101250005A2000F089F9F1B25B2000F085F9C7F35C
:101260000128042000EAA61040EA080841465C2054
:1012700000F07AF90021E02000F076F90020C7E7BD
:101280002DE9F0478046894614461D46E11704EBD8
:1012900091718910A4EB810111B10120BDE8F087A3
:1012A000E91705EB91718910A5EB810109B10220C5
:1012B000F4E72046E11704EB9171C1F38F0628464D
:1012C000E91705EB9171C1F38F0A0021FF2000F0AF
:1012D0004BF90421E02000F047F9F1B2512000F071
:1012E00043F90AF0FF01522000F03EF908F0FF0137
:1012F000532000F039F909F0FF01542000F034F9CF
:10130000802000EA6A07702000EA291007430820BD
:1013100000EA66100743C8F3022007433946552008
:1013200000F022F9802000EAA601572000F01CF905
:101330000021E02000F018F90020AFE770B5044666
:101340000D460021FF2000F00FF90421E02000F0FD
:101350000BF9C4F3C701C02000F006F9C5F3C701BB
:10136000C12000F001F96007860E05F00700064372
:10137000802000EA2410064331468C2000F0F4F867
:101380000021E02000F0F0F8002070BD1CB5012124
:10139000082005F04DFFC020009001208DF80400CA
:1013A00000208DF8060002208DF8050001208DF840
:1013B000070069468F4805F09DFCC0218D4805F067
:1013C00015FD8C48006820F440408A4908600846B2
:1013D000006840F4804008601CBD10B501208649BB
:1013E00008608649C1F89802322005F035F80020DF
:1013F00081490860322005F02FF800207F49C1F8AC
:10140000980210BD10B500207B490860322005F01D
:1014100023F801207949C1F89802322005F01CF820
:10142000012075490860322005F016F810BD10B58E
:10143000322005F011F801206F4908606F49C1F8AA
:101440009802322005F008F800206B49091F086057
:10145000322005F001F800206849C1F89C023220D2
:1014600004F0FAFF10BD70B5044600261BE004F03E
:10147000800018B101206049086002E000205E4948
:1014800008606006040E322004F0E6FF01205A498D
:10149000091F0860322004F0DFFF00205749C1F81F
:1014A0009802701CC6B2082EE1DB5248006820F496
:1014B000404050490860084600680860322004F047
:1014C000CBFF01204C49091F0860322004F0C4FF03
:1014D0004A48D0F81C0208B1012500E00025002090
:1014E0004549091F08604348006820F440404149CD
:1014F00008600846006840F480400860284670BDD7
:1015000070B500243B48006820F440403949086029
:10151000084600680860082517E0322004F09CFFA8
:1015200001203549091F08606006040E3348D0F8D1
:101530001C0208B1601CC4B2322004F08DFF0020F0
:101540002D49091F0860681EC5B2002DE5DC294839
:10155000006820F44040274908600846006840F4CD
:1015600080400860204670BD70B505460C460026D8
:10157000FFF733FF6020FFF776FF00B101266420FC
:1015800004F06AFF2846FFF76EFF00B101266420D1
:1015900004F062FF2046FFF766FF00B10126FFF767
:1015A00031FF304670BD70B504460025FFF715FFCA
:1015B0006020FFF758FF642004F04EFF2046FFF73D
:1015C00052FF642004F048FFFFF71CFF642004F082
:1015D00043FFFFF702FF6120FFF745FF642004F09F
:1015E0003BFFFFF78DFF0546FFF721FFFFF70AFFDF
:1015F000284670BD000C02409C824142008041425E
:1016000030B587B005460C460121084605F010FEAE
:101610000121480405F055FE0C20059002208DF8AC
:1016200018008DF8190000208DF81A0001208DF89F
:101630001B0005A9114805F05DFB072202210F4898
:1016400005F0E3FB072203210C4805F0DEFB0194C3
:101650000020ADF80800ADF80A00ADF80C00ADF8B8
:1016600010000820ADF80E0001A9054805F09BFF09
:101670000121034806F01FF807B030BD000002400A
:10168000004400407FB504460D460121022005F0CC
:1016900018FEADF804500020ADF806000294ADF835
:1016A0000C0001A91A4806F0EEF90122114618486B
:1016B00006F08AFE0121164806F06EFA1D208DF80C
:1016C000000001208DF8010003208DF802000120A8
:1016D0008DF80300684605F01CFA7FBD10B50121A6
:1016E0000B4806F088FE01280CD10A4801780AA0B0
:1016F00008F01EF80B4801880BA008F019F800202C
:10170000044908700121024806F086FE10BD000061
:1017100000040040450000206672616D653A256452
:101720000D0A00000C0000206A7065675F64617438
:10173000615F6C656E3A25640D0A000001B5BDF865
:1017400000000090BDF80000F849088008BD01B510
:10175000BDF800000090BDF80000F449891C088025
:1017600008BD08B5F148801C00880090BDF8000055
:1017700008BDEE4A10804FF0D842A2F880107047A2
:1017800010B504462046FFF7D9FF052004F064FE9B
:10179000FFF7E7FF10BDE6480089E449088070477D
:1017A000E249891C0880704730B5014601F01F04EA
:1017B000C1F34513CA0AE50205EB43151544A8B267
:1017C00030BD00BF011EA0F10102D0B2FAD17047B6
:1017D00030B504460D46D648808849F241318842EA
:1017E00005D0D348808845F21031884214D1D049C1
:1017F0004889FFF7A3FF2012FFF7A9FFE0B2FFF728
:10180000A6FFCB498889FFF799FF2812FFF79FFFB2
:10181000E8B2FFF79CFFABE0C548808846F60401BC
:1018200088421DD1C2488079012804D1C04800886F
:10183000401E001B84B2BE494889FFF77FFF20127B
:10184000FFF785FFE0B2FFF782FFB9498889FFF70C
:1018500075FF2812FFF77BFFE8B2FFF778FF87E0FC
:10186000B348808841F66311884247D1B0488079F7
:10187000A8B9AF480088401E001B84B2AC49488913
:10188000FFF75CFF0020FFF762FF0020FFF75FFF1C
:101890002012FFF75CFFE0B2FFF759FF16E0A44902
:1018A0004889FFF74BFF2012FFF751FFE0B2FFF727
:1018B0004EFF9F490988491EC1F30F20FFF747FFDC
:1018C0009B490978491EC8B2FFF741FF98498889AA
:1018D000FFF734FF2812FFF73AFFE8B2FFF737FFB0
:1018E00093494988491EC1F30F20FFF730FF904903
:1018F0008978491EC8B2FFF72AFF39E08C488088F2
:1019000045F21051884220D189494889FFF716FFD6
:101910002012FFF71CFF86494989491C88B2FFF74E
:101920000DFFE0B2FFF713FF81498889FFF706FF3B
:101930002812FFF70CFF7E498989491C88B2FFF7FE
:10194000FDFEE8B2FFF703FF12E079488079012835
:1019500004D177480088401E001B84B2744948892E
:101960002146FFF706FF724988892946FFF701FFE4
:1019700030BD2DE9F04105460E4600240027A04663
:101980006B480088A84203DD69484088B04202DC09
:101990000020BDE8F08131462846FFF719FF644872
:1019A000808849F24131884211D06148808846F6EA
:1019B000040188420BD05E48808845F2103188428D
:1019C00005D05B48808841F66311884203D12E2000
:1019D000FFF7B4FE0DE05648808845F2105188426A
:1019E00004D14FF43850FFF7A9FE02E02220FFF7A0
:1019F000A5FE4F48808849F22031884202D102205A
:101A0000FFF7DFFEFFF7ADFE04464948808841F648
:101A10006311884201D12046BBE70220FFF7D1FEC7
:101A2000FFF79FFE04464248808849F241318842D0
:101A30000BD03F48808845F21031884205D03C48A1
:101A4000808845F2105188420AD10220FFF7B9FE82
:101A5000FFF787FE8046E7B24FF6FF7000EA0727E0
:101A60003348808849F22531884216D03048808832
:101A700044F23551884210D02D488088091F884291
:101A80000BD02B4880884BF20551884205D028485E
:101A900080884CF20551884201D1204679E72448DC
:101AA000808849F2413188420BD02148808845F234
:101AB0001031884205D01E48808845F21051884276
:101AC00007D1E012C002B91240EA411040EAE82012
:101AD0005FE72046FFF768FE5BE700B514488088A3
:101AE00049F24131884211D01148808846F60401FC
:101AF00088420BD00E48808845F21031884205D0CC
:101B00000B48808841F66311884203D12920FFF7F2
:101B100015FE14E00648808845F21051884209D12C
:101B20004FF42450FFF70AFE09E000007E00006C2D
:101B300060E3012040F273110720FFF71AFE00BD99
:101B400000B5FD48808849F24131884211D0FA48F9
:101B5000808846F6040188420BD0F748808845F219
:101B60001031884205D0F448808841F663118842DC
:101B700003D12820FFF7E2FD0EE0EF48808845F210
:101B80001051884204D14FF42050FFF7D7FD03E0F5
:101B900000210720FFF7EDFD00BDF0B5054600244C
:101BA0000027E548807901280BD1E348808846F674
:101BB0000401884205D0E048808841F663118842DC
:101BC00008D1DD488079F0B9DB48808841F663119F
:101BD000884218D1082D15D2DFE805F00406080A5E
:101BE0000C0E101206250DE007250BE0042509E078
:101BF000052507E0012505E0002503E0032501E0B8
:101C0000022500BF00BFCC48808849F2413188429C
:101C100017D0C948808846F60401884211D0C648CA
:101C2000808845F2103188420BD0C348808845F245
:101C30001051884205D0C048808841F6631188421F
:101C40007ED1082D1CD2DFE805F00406090C0F1226
:101C5000151800BF14E044F0800411E044F0400483
:101C60000EE044F0C0040BE044F0200408E044F02F
:101C7000600405E044F0A00402E044F0E00400BF8A
:101C800000BFAD48808845F21051884202D14FF420
:101C9000585700E03627A848808845F2103188421E
:101CA0000DD0A548808845F21051884207D0A2483F
:101CB000808841F66311884201D044F008049E48B0
:101CC000808846F60401884201D144F0020421468E
:101CD0003846FFF74EFD9848808841F663118842E8
:101CE0001DD004F0200068B19348008892494988CB
:101CF000884214DA9048068840888F490880084650
:101D000046800CE08C4800888B494988884206DD73
:101D10008948068840888849088008464680864861
:101D2000808845F21051884254D183494889FFF791
:101D300005FD0020FFF70BFD7F494989491C00E0A4
:101D400077E088B2FFF7FAFC0020FFF700FD7A4940
:101D50004989891C88B2FFF7F1FC77490988491E37
:101D6000C1F30F20FFF7F3FC73494989C91C88B2FE
:101D7000FFF7E4FC70490978491EC8B2FFF7E7FC99
:101D80006D498889FFF7DAFC0020FFF7E0FC6A491B
:101D90008989491C88B2FFF7D1FC0020FFF7D7FCE6
:101DA00065498989891C88B2FFF7C8FC624949885E
:101DB000491EC1F30F20FFF7CAFC5F498989C91C7E
:101DC00088B2FFF7BBFC5C498978491EC8B2FFF7AF
:101DD000BEFC55E058494889FFF7B0FC0020FFF7EA
:101DE000B6FC0020FFF7B3FC53490988491EC1F334
:101DF0000F20FFF7ACFC50490978491EC8B2FFF725
:101E0000A6FC4D498889FFF799FC0020FFF79FFC4D
:101E10000020FFF79CFC48494988491EC1F30F2068
:101E2000FFF795FC44498978491EC8B2FFF78FFC3B
:101E300026E0082D1CD2DFE805F004070A0D0F127A
:101E4000151844F0300413E044F0100410E044F09E
:101E500020040DE000BF0BE044F0380408E044F03B
:101E6000280405E044F0180402E044F0080400BF30
:101E700000BF032744F4805421463846FFF779FC1D
:101E8000F0BD30B504460D4629462046FFF7A0FCBC
:101E9000FFF781FC294800882949088030BD70B5CA
:101EA00004460D4616462448808849F2413188424E
:101EB00005D02148808845F21031884214D11E494E
:101EC0004889FFF73BFC2012FFF741FCE0B2FFF727
:101ED0003EFC19498889FFF731FC2812FFF737FCCF
:101EE000E8B2FFF734FC93E01348808845F21051C4
:101EF000884227D110494889FFF720FC2012FFF7BC
:101F000026FC0D494989491C88B2FFF717FCE0B24D
:101F1000FFF71DFC08498889FFF710FC2812FFF71E
:101F200016FC05498989491C88B2FFF707FCE8B20D
:101F3000FFF70DFC6CE0000060E30120460000208C
:101F40008000006CFE48808841F66311884228D1E9
:101F5000FB48807920B9FA480088401E001B84B2F3
:101F6000F7494889FFF7EAFB2012FFF7F0FBE0B2E0
:101F7000FFF7EDFB2012FFF7EAFBE0B2FFF7E7FB0C
:101F8000EF498889FFF7DAFB2812FFF7E0FBE8B298
:101F9000FFF7DDFB2812FFF7DAFBE8B2FFF7D7FB0C
:101FA00036E0E748808846F6040188421DD1E448BF
:101FB0008079012804D1E2480088401E001B84B2C9
:101FC000DF494889FFF7BAFB2012FFF7C0FBE0B2F8
:101FD000FFF7BDFBDA498889FFF7B0FB2812FFF74E
:101FE000B6FBE8B2FFF7B3FB12E0D54880790128D1
:101FF00004D1D3480088401E001B84B2D0494889D0
:102000002146FFF7B6FBCE4988892946FFF7B1FB89
:10201000CB480089CB4908804FF0D840A0F88060B9
:1020200070BD70B52DED048B0446BE20FFF786FB16
:102030000520FFF78CFB204607F0BFFE41EC190B93
:102040009FEDC10B53EC102B07F006FF41EC180B72
:1020500007F086FE85B22846FFF779FB0120FFF7DF
:1020600076FBFF20FFF773FB0020FFF770FB0020DB
:10207000FFF76DFBBDEC048B70BD10B50446002C62
:1020800066D1AF498871F02008804FF4A070488075
:102090000846808849F2413188420BD0A8488088A0
:1020A00046F60401884205D0A548808845F21031E3
:1020B00088421AD12C20A24908812A2048812B204D
:1020C00088810846808846F60401884205D09C48ED
:1020D000808845F21031884206D14FF4A0709849AB
:1020E00008804FF4F0704880A1E09548808845F260
:1020F0001051884210D14FF43050914908814FF46B
:10210000285048814FF42C5088814FF4F07008809B
:102110004FF4487048808AE08948808841F663110E
:1021200088420DD12C20864908812B2048812A2005
:1021300088814FF4F07008804FF44870488076E052
:1021400022207F49088120204881212088816EE05B
:1021500001207B4988714FF4A0700880F0204880EE
:102160000846808849F24131884205D07448808809
:1021700045F21031884207D12C20714908812A206C
:1021800048812B2088813FE06D48808846F6040115
:10219000884207D12C206A4908812B2048812A20B7
:1021A000888131E06648808845F21051884210D11C
:1021B0004FF43050624908814FF4285048814FF461
:1021C0002C5088814FF4487008804FF4F07048809C
:1021D0001AE05B48808841F6631188420DD12C20BB
:1021E000574908812A2048812B2088814FF4487064
:1021F00008804FF4F070488006E0222050490881A2
:1022000021204881202088814D48808846F604019D
:10221000884205D04A48808845F21031884206D16C
:102220004FF4F070464908804FF4A07048800020B9
:10223000FFF7B3FC10BD2DE9F04F86B004460D4604
:102240009046994604EB0800401E86B205EB090053
:10225000401E87B23A48808849F24131884215D001
:102260003748808845F2103188420FD03448808842
:1022700046F60401884209D031488079012826D1E8
:102280002F48808841F66311884220D12C49488923
:10229000FFF754FA2012FFF75AFAE0B2FFF757FAA5
:1022A0003012FFF754FAF0B2FFF751FA2449888947
:1022B000FFF744FA2812FFF74AFAE8B2FFF747FAA5
:1022C0003812FFF744FAF8B2FFF741FAC1E01C48B0
:1022D000808841F6631188423DD119480088A0EBFF
:1022E0000800001B84B205EB0900401E1FFA80F9AC
:1022F00013494889FFF722FA2012FFF728FAE0B2C3
:10230000FFF725FA04EB0801491EC1F30F20FFF780
:102310001EFA04EB0801491EC8B2FFF718FA084973
:102320008889FFF70BFA2812FFF711FAE8B2FFF7D6
:102330000EFA4FEA2920FFF70AFA09F0FF0007E03A
:1023400060E301207E00006C666666666666044097
:10235000FFF7FDF97DE0FE48808845F21051884284
:1023600044D1FB494889FFF7E9F92012FFF7EFF95B
:10237000F7494989491C88B2FFF7E0F9E0B2FFF755
:10238000E6F9F3494989891C88B2FFF7D7F9301279
:10239000FFF7DDF9EE494989C91C88B2FFF7CEF98C
:1023A000F0B2FFF7D4F9EA498889FFF7C7F9281294
:1023B000FFF7CDF9E6498989491C88B2FFF7BEF9D4
:1023C000E8B2FFF7C4F9E2498989891C88B2FFF7AE
:1023D000B5F93812FFF7BBF9DD498989C91C88B204
:1023E000FFF7ACF9F8B2FFF7B2F932E0D8488079DC
:1023F00001280ED1AA46BB46D5480088801B401E46
:1024000080B20190D2480088001B401E80B200902C
:1024100003E0A246B3460195009750200590512055
:102420000490522003905320029051460598FFF7E4
:10243000A0F959460498FFF79CF901990398FFF712
:1024400098F900990298FFF794F929462046FFF77A
:10245000BFF906B0BDE8F08F70B504460026BC4851
:10246000058840884543BA48808846F6040188427A
:1024700016D1B7488079012812D10020B44988715B
:102480002A2048812B20888100210846FFF7A0F9E7
:102490000120AF4988712B2048812A20888103E0E0
:1024A00000210846FFF794F9FFF775F9002602E0CE
:1024B000A8480480761CAE42FAD370BD1CB5A6486D
:1024C000006840F07800A44908600846006840F0C1
:1024D00002000860A0480830006840F001009E49F2
:1024E000083108600120022100230246CDE90010D6
:1024F000C1039A4804F0DEF80120032100230222E0
:10250000CDE900104CF23371954804F0D3F8012066
:10251000032100230222CDE900104FF6807191487B
:1025200004F0C8F80120032100230222CDE90010A5
:1025300001038D4804F0BEF801200321002302228C
:10254000CDE900100103894804F0B4F80C22002101
:10255000834804F08FF80C220121814804F08AF8A6
:102560000C2204217E4804F085F80C2205217C48C9
:1025700004F080F80C220821794804F07BF80C2242
:102580000921774804F076F80C220A21744804F0F7
:1025900071F80C220E21724804F06CF80C220F2105
:1025A0006F4804F067F80C2207216E4804F062F8C7
:1025B0000C2208216B4804F05DF80C2209216948BF
:1025C00004F058F80C220A21664804F053F80C2253
:1025D0000B21644804F04EF80C221146614804F0C7
:1025E00049F80C220D215F4804F044F80C220E211A
:1025F0005C4804F03FF80C220F215A4804F03AF8E6
:102600000C221146584804F035F80C221146574860
:1026100004F030F800204FF020418861C86154492F
:1026200008604FF02040806940F480504FF0204116
:1026300088610846806940F4804088610846806966
:1026400040F0100088610846C069C8610846C0694A
:1026500040F00F00C8610846C06940F47050C8617E
:1026600043480068C1F81C010846D0F81C0140F03E
:102670000900C1F81C010846D0F81C0140F40060B4
:10268000C1F81C010846806940F0010088613220D1
:1026900003F02AFF01210020FFF76BF8322003F03E
:1026A00023FF0020FFF76CF82949888008468088BE
:1026B000FF280ADB084680884FF6FF71884204D065
:1026C00023488088B0F5134F7ED1D320FFF736F82A
:1026D000FFF747F81E498880FFF743F81C498880B8
:1026E000FFF73FF81A498880084680884FF6FF7147
:1026F00001EA002016498880FFF733F814498988D9
:102700000843134988800846808849F2413188424D
:102710005AD0BF20FFF712F8FFF723F80C49888042
:10272000FFF71FF80A498880FFF71BF808498880DF
:10273000FFF717F806498880084680884FF6FF7132
:1027400001EA002002498880FFF70BF8004911E0F8
:1027500060E301208000006C303802400004024039
:10276000000C024000100240001402400018024019
:102770001C0100A089880843FE498880084680889B
:1027800046F6040188427AD0D420FEF7D7FFFEF740
:10279000E8FFF8498880FEF7E4FFF6498880FEF7F5
:1027A000E0FFF4498880084680884FF6FF7101EA0F
:1027B0000020F0498880FEF7D4FFEE49898808435D
:1027C000EC498880084600E059E0808845F21031E5
:1027D000884254D04FF45A40FEF7B0FFFEF7C1FFD5
:1027E000E44988804FF45B40FEF7A8FFFEF7B9FF8D
:1027F000E0498880084680884FF6FF7101EA002092
:10280000DC4988804FF45C40FEF798FFFEF7A9FF93
:10281000D84989880843D749888008468088B0F518
:10282000004F02D145F210508880D248808845F28E
:102830001051884223D0A120FEF780FFFEF791FFC0
:10284000CC498880FEF78DFFCA4988800846808879
:102850004FF6FF7101EA0020C6498880FEF781FF2C
:10286000C44989880843C34988800846808845F25E
:102870006171884203D141F66310BE498880BD482A
:10288000808849F24131884211D0BA48808845F2A7
:10289000103188420BD0B748808845F210518842E9
:1028A00005D0B448808841F6631188421DD1B248F2
:1028B000006820F00F004FF02041C1F81C010846CD
:1028C000D0F81C0120F47060C1F81C010846D0F853
:1028D0001C0140F00300C1F81C010846D0F81C019F
:1028E00040F40070C1F81C0128E0A248808846F638
:1028F0000401884205D09F4880884CF205518842E7
:102900001CD19D48006820F00F004FF02041C1F815
:102910001C010846D0F81C0120F47060C1F81C01AD
:102920000846D0F81C0140F00A00C1F81C01084616
:10293000D0F81C0140F44060C1F81C018D4881882A
:102940008EA006F0F5FE8B48808849F2413188421E
:102950007ED1CF20FEF7F2FE0020FEF7F8FEC12068
:10296000FEF7F5FE3020FEF7F2FEED20FEF7E6FE64
:102970006420FEF7ECFE0320FEF7E9FE1220FEF7CE
:10298000E6FE8120FEF7E3FEE820FEF7D7FE852075
:10299000FEF7DDFE1020FEF7DAFE7A20FEF7D7FE06
:1029A000CB20FEF7CBFE3920FEF7D1FE2C20FEF720
:1029B000CEFE0020FEF7CBFE3420FEF7C8FE02203C
:1029C000FEF7C5FEF720FEF7B9FE2020FEF7BFFE9A
:1029D000EA20FEF7B3FE0020FEF7B9FE0020FEF766
:1029E000B6FEC020FEF7AAFE1B20FEF7B0FEC120F7
:1029F000FEF7A4FE0120FEF7AAFEC520FEF79EFE0C
:102A00003020FEF7A4FE3020FEF7A1FEC720FEF71F
:102A100095FEB720FEF79BFE3620FEF78FFE48207E
:102A2000FEF795FE3A20FEF789FE5520FEF78FFE51
:102A3000B120FEF783FE0020FEF789FE1A20FEF784
:102A400086FEB620FEF77AFE0A20FEF780FE00E042
:102A5000A4E0A220FEF77BFEF220FEF76FFE00202E
:102A6000FEF775FE2620FEF769FE0120FEF76FFED9
:102A7000E020FEF763FE0F20FEF769FE2A20FEF736
:102A800066FE2820FEF763FE0820FEF760FE0E209B
:102A9000FEF75DFE0820FEF75AFE5420FEF757FEB3
:102AA000A920FEF754FE4320FEF751FE0A20FEF750
:102AB0004EFE0F20FEF74BFE0020FEF748FE0020E2
:102AC000FEF745FE0020FEF742FE0020FEF73FFE27
:102AD000E120FEF733FE0020FEF739FE1520FEF759
:102AE00036FE1720FEF733FE0720FEF730FE1120DA
:102AF000FEF72DFE0620FEF72AFE2B20FEF727FE0E
:102B00005620FEF724FE3C20FEF721FE0520FEF7AE
:102B10001EFE1020FEF71BFE0F20FEF718FE3F20C2
:102B2000FEF715FE3F20FEF712FE0F20FEF70FFE08
:102B30002B20FEF703FE0020FEF709FE0020FEF723
:102B400006FE0120FEF703FE3F20FEF700FE2A20CE
:102B5000FEF7F4FD0020FEF7FAFD0020FEF7F7FD7A
:102B60000020FEF7F4FDEF20FEF7F1FD1120FEF747
:102B7000E5FD0BE060E301201C0100A0204C434474
:102B80002049443A25780D0A00000000782003F01F
:102B9000ABFC2920FEF7D2FD03F01DB9FE4880886A
:102BA00046F6040188427CD11120FEF7C7FD1420AF
:102BB00003F09AFCD020FEF7C1FD0720FEF7C7FD09
:102BC0004220FEF7C4FD1D20FEF7C1FDD120FEF717
:102BD000B5FD0020FEF7BBFD1A20FEF7B8FD092069
:102BE000FEF7B5FDD220FEF7A9FD0120FEF7AFFDEF
:102BF0002220FEF7ACFDC020FEF7A0FD1020FEF75E
:102C0000A6FD3B20FEF7A3FD0020FEF7A0FD02205D
:102C1000FEF79DFD1120FEF79AFDC520FEF78EFD03
:102C20000320FEF794FDC820FEF788FD0020FEF784
:102C30008EFD2520FEF78BFD2120FEF788FD052067
:102C4000FEF785FD0020FEF782FD0A20FEF77FFDDE
:102C50006520FEF77CFD2520FEF779FD7720FEF745
:102C600076FD5020FEF773FD0F20FEF770FD00206B
:102C7000FEF76DFDF820FEF761FD0120FEF767FD10
:102C8000FE20FEF75BFD0020FEF761FD0220FEF74F
:102C90005EFD2020FEF752FD3620FEF74FFD082096
:102CA00000E02CE0FEF753FD3A20FEF747FD5520EB
:102CB000FEF74DFD2B20FEF741FD0020FEF747FDFE
:102CC0000020FEF744FD0120FEF741FD3F20FEF706
:102CD0003EFD2A20FEF732FD0020FEF738FD0020E1
:102CE000FEF735FD0120FEF732FDDF20FEF72FFD58
:102CF000782003F0F9FB2920FEF720FD4CE7A648D9
:102D0000808845F21031884240F07C87ED20FEF744
:102D100015FD0120FEF71BFDFE20FEF718FDEE203D
:102D2000FEF70CFDDE20FEF712FD2120FEF70FFD61
:102D3000F120FEF703FD0120FEF709FDDF20FEF77D
:102D4000FDFC1020FEF703FDC420FEF7F7FC8F20EA
:102D5000FEF7FDFCC620FEF7F1FC0020FEF7F7FCB5
:102D6000E220FEF7F4FCE220FEF7F1FCE220FEF7A1
:102D7000EEFCBF20FEF7E2FCAA20FEF7E8FCB02044
:102D8000FEF7DCFC0D20FEF7E2FC0020FEF7DFFC86
:102D90000D20FEF7DCFC0020FEF7D9FC1120FEF729
:102DA000D6FC0020FEF7D3FC1920FEF7D0FC002053
:102DB000FEF7CDFC2120FEF7CAFC0020FEF7C7FC81
:102DC0002D20FEF7C4FC0020FEF7C1FC3D20FEF7DD
:102DD000BEFC0020FEF7BBFC5D20FEF7B8FC002027
:102DE000FEF7B5FC5D20FEF7B2FC0020FEF7AFFC5D
:102DF000B120FEF7A3FC8020FEF7A9FC0020FEF71F
:102E0000A6FC8B20FEF7A3FC0020FEF7A0FC96207A
:102E1000FEF79DFC0020FEF79AFCB220FEF78EFC28
:102E20000020FEF794FC0020FEF791FC0220FEF744
:102E30008EFC0020FEF78BFC0320FEF788FC0020B0
:102E4000FEF785FCB320FEF779FC0020FEF77FFC3F
:102E50000020FEF77CFC0020FEF779FC0020FEF746
:102E600076FC0020FEF773FC0020FEF770FC0020CB
:102E7000FEF76DFC0020FEF76AFC0020FEF767FC01
:102E80000020FEF764FC0020FEF761FC0020FEF746
:102E90005EFC0020FEF75BFC0020FEF758FC0020E3
:102EA000FEF755FC0020FEF752FC0020FEF74FFC19
:102EB0000020FEF74CFC0020FEF749FC0020FEF746
:102EC00046FC0020FEF743FC0020FEF740FC0020FB
:102ED000FEF73DFC0020FEF73AFCB420FEF72EFC86
:102EE0008B20FEF734FC0020FEF731FC9620FEF725
:102EF0002EFC0020FEF72BFCA120FEF728FC002072
:102F0000FEF725FCB520FEF719FC0220FEF71FFC9A
:102F10000020FEF71CFC0320FEF719FC0020FEF742
:102F200016FC0420FEF713FC0020FEF710FCB62070
:102F3000FEF704FC0020FEF70AFC0020FEF707FC69
:102F4000B720FEF7FBFB0020FEF701FC0020FEF798
:102F5000FEFB3F20FEF7FBFB0020FEF7F8FB5E20A8
:102F6000FEF7F5FB0020FEF7F2FB6420FEF7EFFB17
:102F70000020FEF7ECFB8C20FEF7E9FB0020FEF7BB
:102F8000E6FBAC20FEF7E3FB0020FEF7E0FBDC20D5
:102F9000FEF7DDFB002001E060E30120FEF7D7FB38
:102FA0007020FEF7D4FB0020FEF7D1FB9020FEF747
:102FB000CEFB0020FEF7CBFBEB20FEF7C8FB00208A
:102FC000FEF7C5FBDC20FEF7C2FB0020FEF7BFFBCF
:102FD000B820FEF7B3FB0020FEF7B9FB0020FEF798
:102FE000B6FB0020FEF7B3FB0020FEF7B0FB00208D
:102FF000FEF7ADFB0020FEF7AAFB0020FEF7A7FBC3
:103000000020FEF7A4FBBA20FEF798FB2420FEF771
:103010009EFB0020FEF79BFB0020FEF798FB0020A4
:10302000FEF795FBC120FEF789FB2020FEF78FFB02
:103030000020FEF78CFB5420FEF789FB0020FEF7F2
:1030400086FBFF20FEF783FB0020FEF780FBC220FB
:10305000FEF774FB0A20FEF77AFB0020FEF777FBF1
:103060000420FEF774FB0020FEF771FBC320FEF77F
:1030700065FB3C20FEF76BFB0020FEF768FB3A2067
:10308000FEF765FB0020FEF762FB3920FEF75FFBD1
:103090000020FEF75CFB3720FEF759FB0020FEF70F
:1030A00056FB3C20FEF753FB0020FEF750FB36207A
:1030B000FEF74DFB0020FEF74AFB3220FEF747FBF0
:1030C0000020FEF744FB2F20FEF741FB0020FEF717
:1030D0003EFB2C20FEF73BFB0020FEF738FB2920AF
:1030E000FEF735FB0020FEF732FB2620FEF72FFB14
:1030F0000020FEF72CFB2420FEF729FB0020FEF722
:1031000026FB2420FEF723FB0020FEF720FB2320D4
:10311000FEF71DFB0020FEF71AFB3C20FEF717FB15
:103120000020FEF714FB3620FEF711FB0020FEF70F
:103130000EFB3220FEF70BFB0020FEF708FB2F20D2
:10314000FEF705FB0020FEF702FB2C20FEF7FFFA3E
:103150000020FEF7FCFA2920FEF7F9FA0020FEF71E
:10316000F6FA2620FEF7F3FA0020FEF7F0FA242004
:10317000FEF7EDFA0020FEF7EAFA2420FEF7E7FA60
:103180000020FEF7E4FA2320FEF7E1FA0020FEF724
:10319000DEFAC420FEF7D2FA6220FEF7D8FA002049
:1031A000FEF7D5FA0520FEF7D2FA0020FEF7CFFA97
:1031B0008420FEF7CCFA0020FEF7C9FAF020FEF7D3
:1031C000C6FA0020FEF7C3FA1820FEF7C0FA002066
:1031D000FEF7BDFAA420FEF7BAFA0020FEF7B7FA10
:1031E0001820FEF7B4FA0020FEF7B1FA5020FEF7DF
:1031F000AEFA0020FEF7ABFA0C20FEF7A8FA00208A
:10320000FEF7A5FA1720FEF7A2FA0020FEF79FFAB4
:103210009520FEF79CFA0020FEF799FAF320FEF7BE
:1032200096FA0020FEF793FAE620FEF790FA0020C7
:10323000FEF78DFAC520FEF781FA3220FEF787FAF5
:103240000020FEF784FA4420FEF781FA0020FEF702
:103250007EFA6520FEF77BFA0020FEF778FA7620EA
:10326000FEF775FA0020FEF772FA8820FEF76FFA73
:103270000020FEF76CFAC620FEF760FA2020FEF769
:1032800066FA0020FEF763FA1720FEF760FA0020C6
:10329000FEF75DFA0120FEF75AFA0020FEF757FA12
:1032A000C720FEF74BFA0020FEF751FA0020FEF788
:1032B0004EFA0020FEF74BFA0020FEF748FAC8202D
:1032C000FEF73CFA0020FEF742FA0020FEF73FFA34
:1032D0000020FEF73CFA0020FEF739FAC920FEF77D
:1032E0002DFA0020FEF733FA0020FEF730FA002016
:1032F000FEF72DFA0020FEF72AFA0020FEF727FA43
:103300000020FEF724FA0020FEF721FA0020FEF745
:103310001EFA0020FEF71BFA0020FEF718FA002024
:10332000FEF715FA0020FEF712FA0020FEF70FFA5A
:103330000020FEF70CFA0020FEF709FA0020FEF745
:1033400006FAE020FEF7FAF91620FEF700FA002050
:10335000FEF7FDF91C20FEF7FAF90020FEF7F7F959
:103360002120FEF7F4F90020FEF7F1F93620FEF7F0
:10337000EEF90020FEF7EBF94620FEF7E8F9002011
:10338000FEF7E5F95220FEF7E2F90020FEF7DFF93B
:103390006420FEF7DCF90020FEF7D9F97A20FEF769
:1033A000D6F90020FEF7D3F98B20FEF7D0F90020E4
:1033B000FEF7CDF99920FEF7CAF90020FEF7C7F90C
:1033C000A820FEF7C4F90020FEF7C1F9B920FEF7E6
:1033D000BEF90020FEF7BBF9C420FEF7B8F90020C3
:1033E000FEF7B5F9CA20FEF7B2F90020FEF7AFF9F3
:1033F000D220FEF7ACF90020FEF7A9F9D920FEF79C
:10340000A6F90020FEF7A3F9E020FEF7A0F90020BE
:10341000FEF79DF9F320FEF79AF90020FEF797F9E1
:10342000E120FEF78BF91620FEF791F90020FEF758
:103430008EF91C20FEF78BF90020FEF788F9222078
:10344000FEF785F90020FEF782F93620FEF77FF9B6
:103450000020FEF77CF94520FEF779F90020FEF701
:1034600076F95220FEF773F90020FEF770F9642018
:10347000FEF76DF90020FEF76AF97A20FEF767F98A
:103480000020FEF764F98B20FEF761F90020FEF7BB
:103490005EF99920FEF75BF90020FEF758F9A820A5
:1034A000FEF755F90020FEF752F9B920FEF74FF963
:1034B0000020FEF74CF9C420FEF749F90020FEF782
:1034C00046F9CA20FEF743F90020FEF740F9D22062
:1034D000FEF73DF90020FEF73AF9D820FEF737F95C
:1034E0000020FEF734F9E020FEF731F90020FEF766
:1034F0002EF9F320FEF72BF90020FEF728F9E22041
:10350000FEF71CF90520FEF722F90020FEF71FF94F
:103510000B20FEF71CF90020FEF719F91B20FEF71F
:1035200016F90020FEF713F93420FEF710F90020F9
:10353000FEF70DF94420FEF70AF90020FEF707F91F
:103540004F20FEF704F90020FEF701F96120FEF795
:10355000FEF80020FEF7FBF87920FEF7F8F80020CF
:10356000FEF7F5F88820FEF7F2F80020FEF7EFF8F6
:103570009720FEF7ECF80020FEF7E9F8A620FEF70A
:10358000E6F80020FEF7E3F8B720FEF7E0F80020A9
:10359000FEF7DDF8C220FEF7DAF80020FEF7D7F8D4
:1035A000C720FEF7D4F80020FEF7D1F8D120FEF7AF
:1035B000CEF80020FEF7CBF8D620FEF7C8F80020A2
:1035C000FEF7C5F8DD20FEF7C2F80020FEF7BFF8D1
:1035D000F320FEF7BCF80020FEF7B9F8E320FEF771
:1035E000ADF80520FEF7B3F80020FEF7B0F80A208A
:1035F000FEF7ADF80020FEF7AAF81C20FEF7A7F8AA
:103600000020FEF7A4F83320FEF7A1F80020FEF713
:103610009EF84420FEF79BF80020FEF798F8502013
:10362000FEF795F80020FEF792F86220FEF78FF87B
:103630000020FEF78CF87820FEF789F80020FEF7CE
:1036400086F88820FEF783F80020FEF780F89720A0
:10365000FEF77DF80020FEF77AF8A620FEF777F84F
:103660000020FEF774F8B720FEF771F80020FEF78F
:103670006EF8C220FEF76BF80020FEF768F8C7204E
:10368000FEF765F80020FEF762F8D120FEF75FF83C
:103690000020FEF75CF8D520FEF759F80020FEF771
:1036A00056F8DD20FEF753F80020FEF750F8F3201F
:1036B000FEF74DF80020FEF74AF8E420FEF73EF84A
:1036C0000120FEF744F80020FEF741F80120FEF744
:1036D0003EF80020FEF73BF80220FEF738F8002005
:1036E000FEF735F82A20FEF732F80020FEF72FF813
:1036F0003C20FEF72CF80020FEF729F84B20FEF7BF
:1037000026F80020FEF723F85D20FEF720F80020C1
:10371000FEF71DF87420FEF71AF80020FEF717F8E0
:103720008420FEF714F80020FEF711F89320FEF72E
:103730000EF80020FEF70BF8A220FEF708F8002094
:10374000FEF705F8B320FEF702F80020FDF7FFFFB3
:10375000BE20FDF7FCFF0020FDF7F9FFC420FDF7B8
:10376000F6FF0020FDF7F3FFCD20FDF7F0FF00206E
:10377000FDF7EDFFD320FDF7EAFF0020FDF7E7FF9F
:10378000DD20FDF7E4FF0020FDF7E1FFF320FDF76A
:10379000DEFF0020FDF7DBFFE520FDF7CFFF002077
:1037A000FDF7D5FF0020FDF7D2FF0020FDF7CFFF8A
:1037B0000020FDF7CCFF0220FDF7C9FF0020FDF738
:1037C000C6FF2920FDF7C3FF0020FDF7C0FF3C2006
:1037D000FDF7BDFF0020FDF7BAFF4B20FDF7B7FF57
:1037E0000020FDF7B4FF5D20FDF7B1FF0020FDF7DD
:1037F000AEFF7420FDF7ABFF0020FDF7A8FF84208B
:10380000FDF7A5FF0020FDF7A2FF9320FDF79FFF26
:103810000020FDF79CFFA220FDF799FF0020FDF797
:1038200096FFB320FDF793FF0020FDF790FFBE2029
:10383000FDF78DFF0020FDF78AFFC420FDF787FF0D
:103840000020FDF784FFCD20FDF781FF0020FDF76C
:103850007EFFD320FDF77BFF0020FDF778FFDC2003
:10386000FDF775FF0020FDF772FFF320FDF76FFFF6
:103870000020FDF76CFFE620FDF760FF1120FDF74B
:1038800066FF0020FDF763FF3420FDF760FF002096
:10389000FDF75DFF5620FDF75AFF0020FDF757FFAB
:1038A0007620FDF754FF0020FDF751FF7720FDF74C
:1038B0004EFF0020FDF74BFF6620FDF748FF00207C
:1038C000FDF745FF8820FDF742FF0020FDF73FFF91
:1038D0009920FDF73CFF0020FDF739FFBB20FDF7E5
:1038E00036FF0020FDF733FF9920FDF730FF002061
:1038F000FDF72DFF6620FDF72AFF0020FDF727FFCB
:103900005520FDF724FF0020FDF721FF5520FDF78E
:103910001EFF0020FDF71BFF4520FDF718FF0020CC
:10392000FDF715FF4320FDF712FF0020FDF70FFF05
:103930004420FDF70CFF0020FDF709FFE720FDF70D
:10394000FDFE3220FDF703FF0020FDF700FF5520AC
:10395000FDF7FDFE0020FDF7FAFE7620FDF7F7FEED
:103960000020FDF7F4FE6620FDF7F1FE0020FDF7D4
:10397000EEFE6720FDF7EBFE0020FDF7E8FE672076
:10398000FDF7E5FE0020FDF7E2FE8720FDF7DFFEF4
:103990000020FDF7DCFE9920FDF7D9FE0020FDF7A1
:1039A000D6FEBB20FDF7D3FE0020FDF7D0FE992008
:1039B000FDF7CDFE0020FDF7CAFE7720FDF7C7FE1C
:1039C0000020FDF7C4FE4420FDF7C1FE0020FDF7F6
:1039D000BEFE5620FDF7BBFE0020FDF7B8FE2320FB
:1039E000FDF7B5FE0020FDF7B2FE3320FDF7AFFE78
:1039F0000020FDF7ACFE4520FDF7A9FE0020FDF7F5
:103A0000A6FEE820FDF79AFE0020FDF7A0FE0020AC
:103A1000FDF79DFE9920FDF79AFE0020FDF797FE29
:103A20008720FDF794FE0020FDF791FE8820FDF72A
:103A30008EFE0020FDF78BFE7720FDF788FE00202C
:103A4000FDF785FE6620FDF782FE0020FDF77FFE74
:103A50008820FDF77CFE0020FDF779FEAA20FDF707
:103A600076FE0020FDF773FEBB20FDF770FE002000
:103A7000FDF76DFE9920FDF76AFE0020FDF767FE59
:103A80006620FDF764FE0020FDF761FE5520FDF77E
:103A90005EFE0020FDF75BFE5520FDF758FE00207E
:103AA000FDF755FE4420FDF752FE0020FDF74FFEC6
:103AB0004420FDF74CFE0020FDF749FE5520FDF7A0
:103AC00046FE0020FDF743FEE920FDF737FEAA2061
:103AD000FDF73DFE0020FDF73AFE0020FDF737FE22
:103AE0000020FDF734FE0020FDF728FEAA20FDF798
:103AF0002EFECF20FDF722FE0020FDF728FE00203D
:103B0000FDF725FE0020FDF722FE0020FDF71FFE39
:103B10000020FDF71CFE0020FDF719FE0020FDF738
:103B200016FE0020FDF713FE0020FDF710FE00201A
:103B3000FDF70DFE0020FDF70AFE0020FDF707FE51
:103B40000020FDF704FE0020FDF701FE0020FDF738
:103B5000FEFD0020FDF7FBFD0020FDF7F8FDF02045
:103B6000FDF7ECFD0020FDF7F2FD5020FDF7EFFD25
:103B70000020FDF7ECFD0020FDF7E9FD0020FDF73A
:103B8000E6FDF320FDF7DAFD0020FDF7E0FDF9206A
:103B9000FDF7D4FD0620FDF7DAFD1020FDF7D7FD77
:103BA0002920FDF7D4FD0020FDF7D1FD3A20FDF7D7
:103BB000C5FD5520FDF7CBFD1120FDF7BFFD6420AD
:103BC00002F092FC2920FDF7B9FD3520FDF7B6FD86
:103BD0000020FDF7BCFD5120FDF7B0FDFF20FDF7F3
:103BE000B6FD5320FDF7AAFD2C20FDF7B0FD5520B2
:103BF000FDF7A4FD8220FDF7AAFD2C20FDF79EFD18
:103C000002F0E9B8FE48808845F2105188427DD123
:103C100055214FF47040FDF7ACFDAA214FF2010091
:103C2000FDF7A7FD52214FF20200FDF7A2FD08218A
:103C30004FF20300FDF79DFD01214FF20400FDF757
:103C400098FD0D214FF43040FDF793FD0D214BF20F
:103C50000100FDF78EFD0D214BF20200FDF789FDFD
:103C600034214FF43640FDF784FD34214BF20160DE
:103C7000FDF77FFD34214BF20260FDF77AFD0D2147
:103C80004FF43140FDF775FD0D214BF20110FDF7AA
:103C900070FD0D214BF20210FDF76BFD34214FF446
:103CA0003740FDF766FD34214BF20170FDF761FDF1
:103CB00034214BF20270FDF75CFD00214FF43240DD
:103CC000FDF757FD00214BF20120FDF752FD0021C9
:103CD0004BF20220FDF74DFD24214FF43840FDF753
:103CE00048FD24214BF60100FDF743FD24214BF64E
:103CF0000200FDF73EFD01214FF43F40FDF739FD85
:103D00000F214FF43340FDF734FD00E0FDE30F21B8
:103D10004BF20130FDF72DFD0F214BF20230FDF784
:103D200028FD34214FF43940FDF723FD34214BF6B3
:103D30000110FDF71EFD34214BF60210FDF719FDB1
:103D400008214FF43540FDF714FD08214BF20150D6
:103D5000FDF70FFD08214BF20250FDF70AFD03218C
:103D60004FF44240FDF705FD24214FF43A40FDF7A2
:103D700000FD24214BF60120FDF7FBFC24214BF62E
:103D80000220FDF7F6FC00214FF43C40FDF7F1FC6A
:103D900078214BF60140FDF7ECFC00214BF6024088
:103DA000FDF7E7FC00214FF43D40FDF7E2FC7821F0
:103DB0004BF60150FDF7DDFC00214BF60250FDF7FC
:103DC000D8FC00214FF43E40FDF7D3FC64214BF6B4
:103DD0000160FDF7CEFC00214FF45140FDF7C9FC16
:103DE00033214DF20110FDF7C4FC00214DF2021009
:103DF000FDF7BFFC34214DF20310FDF7BAFC0021A2
:103E00004DF20410FDF7B5FC3A214DF20510FDF717
:103E1000B0FC00214DF20610FDF7ABFC4A214DF23B
:103E20000710FDF7A6FC00214DF20810FDF7A1FCDC
:103E30005C214DF20910FDF79CFC00214DF20A10A7
:103E4000FDF797FC81214DF20B10FDF792FC00214C
:103E50004DF20C10FDF78DFCA6214DF20D10FDF773
:103E600088FC00214DF20E10FDF783FCE5214DF298
:103E70000F10FDF77EFC01214DF21010FDF779FCCB
:103E800013214DF21110FDF774FC01214DF21210B7
:103E9000FDF76FFC54214DF21310FDF76AFC012170
:103EA0004DF21410FDF765FC82214DF21510FDF75F
:103EB00060FC01214DF21610FDF75BFCCA214DF2AA
:103EC0001710FDF756FC02214DF21810FDF751FCBA
:103ED00000214DF21910FDF74CFC02214DF21A1091
:103EE000FDF747FC01214DF21B10FDF742FC0221BA
:103EF0004DF21C10FDF73DFC34214DF21D10FDF775
:103F000038FC02214DF21E10FDF733FC67214DF203
:103F10001F10FDF72EFC02214DF22010FDF729FCA9
:103F200084214DF22110FDF724FC02214DF22210D4
:103F3000FDF71FFCA4214DF22310FDF71AFC02210E
:103F40004DF22410FDF715FCB7214DF22510FDF7B9
:103F500010FC02214DF22610FDF70BFCCF214DF293
:103F60002710FDF706FC02214DF22810FDF701FC99
:103F7000DE214DF22910FDF7FCFB02214DF22A1043
:103F8000FDF7F7FBF2214DF22B10FDF7F2FB0221BA
:103F90004DF22C10FDF7EDFBFE214DF22D10FDF73B
:103FA000E8FB03214DF22E10FDF7E3FB10214DF24B
:103FB0002F10FDF7DEFB03214DF23010FDF7D9FB8A
:103FC00033214DF23110FDF7D4FB03214DF23210B5
:103FD000FDF7CFFB6D214DF23310FDF7CAFB002139
:103FE0004FF45240FDF7C5FB33214DF20120FDF7A0
:103FF000C0FB00214DF20220FDF7BBFB342101E0A4
:1040000060E301204DF20320FDF7B3FB00214DF2E8
:104010000420FDF7AEFB3A214DF20520FDF7A9FB88
:1040200000214DF20620FDF7A4FB4A214DF20720A6
:10403000FDF79FFB00214DF20820FDF79AFB5C2164
:104040004DF20920FDF795FB00214DF20A20FDF706
:1040500090FB81214DF20B20FDF78BFB00214DF2EF
:104060000C20FDF786FBA6214DF20D20FDF781FB0C
:1040700000214DF20E20FDF77CFBE5214DF20F20D3
:10408000FDF777FB01214DF21020FDF772FB1321A4
:104090004DF21120FDF76DFB01214DF21220FDF7CD
:1040A00068FB54214DF21320FDF763FB01214DF213
:1040B0001420FDF75EFB82214DF21520FDF759FB20
:1040C00001214DF21620FDF754FBCA214DF21720B5
:1040D000FDF74FFB02214DF21820FDF74AFB0021AE
:1040E0004DF21920FDF745FB02214DF21A20FDF794
:1040F00040FB01214DF21B20FDF73BFB02214DF25D
:104100001C20FDF736FB34214DF21D20FDF731FB5D
:1041100002214DF21E20FDF72CFB67214DF21F20DE
:10412000FDF727FB02214DF22020FDF722FB842121
:104130004DF22120FDF71DFB02214DF22220FDF75B
:1041400018FBA4214DF22320FDF713FB02214DF2B1
:104150002420FDF70EFBB7214DF22520FDF709FBCA
:1041600002214DF22620FDF704FBCF214DF227203E
:10417000FDF7FFFA02214DF22820FDF7FAFADE21C1
:104180004DF22920FDF7F5FA02214DF22A20FDF724
:10419000F0FAF2214DF22B20FDF7EBFA02214DF25D
:1041A0002C20FDF7E6FAFE214DF22D20FDF7E1FA75
:1041B00003214DF22E20FDF7DCFA10214DF22F20C5
:1041C000FDF7D7FA03214DF23020FDF7D2FA332163
:1041D0004DF23120FDF7CDFA03214DF23220FDF7EB
:1041E000C8FA6D214DF23320FDF7C3FA00214FF4D8
:1041F0005340FDF7BEFA33214DF20130FDF7B9FA15
:1042000000214DF20230FDF7B4FA34214DF20330B3
:10421000FDF7AFFA00214DF20430FDF7AAFA3A217A
:104220004DF20530FDF7A5FA00214DF20630FDF7FD
:10423000A0FA4A214DF20730FDF79BFA00214DF21A
:104240000830FDF796FA5C214DF20930FDF791FA3E
:1042500000214DF20A30FDF78CFA81214DF20B302E
:10426000FDF787FA00214DF20C30FDF782FAA62106
:104270004DF20D30FDF77DFA00214DF20E30FDF7C5
:1042800078FAE5214DF20F30FDF773FA01214DF276
:104290001030FDF76EFA13214DF21130FDF769FA77
:1042A00001214DF21230FDF764FA54214DF2133022
:1042B000FDF75FFA01214DF21430FDF75AFA822121
:1042C0004DF21530FDF755FA01214DF21630FDF78C
:1042D00050FACA214DF21730FDF74BFA02214DF288
:1042E0001830FDF746FA00214DF21930FDF741FA7A
:1042F00002214DF21A30FDF73CFA01214DF21B303C
:10430000FDF737FA02214DF21C30FDF732FA342165
:104310004DF21D30FDF72DFA02214DF21E30FDF752
:1043200028FA67214DF21F30FDF723FA02214DF2E2
:104330002030FDF71EFA84214DF22130FDF719FAE5
:1043400002214DF22230FDF714FAA4214DF2233060
:10435000FDF70FFA02214DF22430FDF70AFAB721DA
:104360004DF22530FDF705FA02214DF22630FDF71A
:1043700000FACF214DF22730FDF7FBF902214DF273
:104380002830FDF7F6F9DE214DF22930FDF7F1F97D
:1043900002214DF22A30FDF7ECF9F2214DF22B30DB
:1043A000FDF7E7F902214DF22C30FDF7E2F9FE218D
:1043B0004DF22D30FDF7DDF903214DF22E30FDF7E2
:1043C000D8F910214DF22F30FDF7D3F903214DF22A
:1043D0003030FDF7CEF933214DF23130FDF7C9F918
:1043E00003214DF23230FDF7C4F96D214DF2333027
:1043F000FDF7BFF900214FF45440FDF7BAF933211E
:104400004DF20140FDF7B5F900214DF20240FDF7F4
:10441000B0F934214DF20340FDF7ABF900214DF224
:104420000440FDF7A6F93A214DF20540FDF7A1F948
:1044300000214DF20640FDF79CF94A214DF207405C
:10444000FDF797F900214DF20840FDF792F95C2144
:104450004DF20940FDF78DF900214DF20A40FDF7BC
:1044600088F981214DF20B40FDF783F900214DF2CF
:104470000C40FDF77EF9A6214DF20D40FDF779F9CC
:1044800000214DF20E40FDF774F9E5214DF20F4089
:10449000FDF76FF901214DF21040FDF76AF9132184
:1044A0004DF21140FDF765F901214DF21240FDF783
:1044B00060F954214DF21340FDF75BF901214DF2F3
:1044C0001440FDF756F982214DF21540FDF751F9E0
:1044D00001214DF21640FDF74CF9CA214DF217406B
:1044E000FDF747F902214DF21840FDF742F900218E
:1044F0004DF21940FDF73DF902214DF21A40FDF74A
:1045000038F901214DF21B4000E006E3FDF731F9D7
:1045100002214DF21C40FDF72CF934214DF21D40D3
:10452000FDF727F902214DF21E40FDF722F9672120
:104530004DF21F40FDF71DF902214DF22040FDF71D
:1045400018F984214DF22140FDF713F902214DF2B3
:104550002240FDF70EF9A4214DF22340FDF709F9A1
:1045600002214DF22440FDF704F9B7214DF2254018
:10457000FDF7FFF802214DF22640FDF7FAF8CF21B2
:104580004DF22740FDF7F5F802214DF22840FDF7E6
:10459000F0F8DE214DF22940FDF7EBF802214DF253
:1045A0002A40FDF7E6F8F2214DF22B40FDF7E1F845
:1045B00002214DF22C40FDF7DCF8FE214DF22D409A
:1045C000FDF7D7F803214DF22E40FDF7D2F8102168
:1045D0004DF22F40FDF7CDF803214DF23040FDF7AD
:1045E000C8F833214DF23140FDF7C3F803214DF2F5
:1045F0003240FDF7BEF86D214DF23340FDF7B9F8BA
:1046000000214FF45540FDF7B4F833214DF201502D
:10461000FDF7AFF800214DF20250FDF7AAF8342162
:104620004DF20350FDF7A5F800214DF20450FDF7BF
:10463000A0F83A214DF20550FDF79BF800214DF20C
:104640000650FDF796F84A214DF20750FDF791F814
:1046500000214DF20850FDF78CF85C214DF2095015
:10466000FDF787F800214DF20A50FDF782F881210D
:104670004DF20B50FDF77DF800214DF20C50FDF787
:1046800078F8A6214DF20D50FDF773F800214DF298
:104690000E50FDF76EF8E5214DF20F50FDF769F869
:1046A00001214DF21050FDF764F813214DF2115025
:1046B000FDF75FF801214DF21250FDF75AF8542131
:1046C0004DF21350FDF755F801214DF21450FDF74E
:1046D00050F882214DF21550FDF74BF801214DF2B3
:1046E0001650FDF746F8CA214DF21750FDF741F874
:1046F00002214DF21850FDF73CF800214DF21950FF
:10470000FDF737F802214DF21A50FDF732F801217A
:104710004DF21B50FDF72DF802214DF21C50FDF714
:1047200028F834214DF21D50FDF723F802214DF2F7
:104730001E50FDF71EF867214DF21F50FDF719F8C6
:1047400002214DF22050FDF714F884214DF2215042
:10475000FDF70FF802214DF22250FDF70AF8A421CF
:104760004DF22350FDF705F802214DF22450FDF7DC
:1047700000F8B7214DF22550FCF7FBFF02214DF266
:104780002650FCF7F6FFCF214DF22750FCF7F1FF42
:1047900002214DF22850FCF7ECFFDE214DF22950AA
:1047A000FCF7E7FF02214DF22A50FCF7E2FFF2216D
:1047B0004DF22B50FCF7DDFF02214DF22C50FCF79F
:1047C000D8FFFE214DF22D50FCF7D3FF03214DF20F
:1047D0002E50FCF7CEFF10214DF22F50FCF7C9FFF1
:1047E00003214DF23050FCF7C4FF33214DF231501C
:1047F000FCF7BFFF03214DF23250FCF7BAFF6D21E9
:104800004DF23350FCF7B5FF00214FF45640FCF752
:10481000B0FF33214DF20160FCF7ABFF00214DF2F8
:104820000260FCF7A6FF34214DF20360FCF7A1FF04
:1048300000214DF20460FCF79CFF3A214DF2056027
:10484000FCF797FF00214DF20660FCF792FF4A212A
:104850004DF20760FCF78DFF00214DF20860FCF778
:1048600088FF5C214DF20960FCF783FF00214DF2C7
:104870000A60FCF77EFF81214DF20B60FCF779FFA7
:1048800000214DF20C60FCF774FFA6214DF20D6083
:10489000FCF76FFF00214DF20E60FCF76AFFE52187
:1048A0004DF20F60FCF765FF01214DF21060FCF73F
:1048B00060FF13214DF21160FCF75BFF01214DF207
:1048C0001260FCF756FF54214DF21360FCF751FFC4
:1048D00001214DF21460FCF74CFF82214DF215606E
:1048E000FCF747FF01214DF21660FCF742FFCA2199
:1048F0004DF21760FCF73DFF02214DF21860FCF706
:1049000038FF00214DF21960FCF733FF02214DF210
:104910001A60FCF72EFF01214DF21B60FCF729FF06
:1049200002214DF21C60FCF724FF34214DF21D6082
:10493000FCF71FFF02214DF21E60FCF71AFF6721F2
:104940004DF21F60FCF715FF02214DF22060FCF7CD
:1049500010FF84214DF22160FCF70BFF02214DF284
:104960002260FCF706FFA4214DF22360FCF701FF53
:1049700002214DF22460FCF7FCFEB7214DF22560C8
:10498000FCF7F7FE02214DF22660FCF7F2FECF2184
:104990004DF22760FCF7EDFE02214DF22860FCF796
:1049A000E8FEDE214DF22960FCF7E3FE02214DF224
:1049B0002A60FCF7DEFEF2214DF22B60FCF7D9FEF7
:1049C00002214DF22C60FCF7D4FEFE214DF22D6049
:1049D000FCF7CFFE03214DF22E60FCF7CAFE10213A
:1049E0004DF22F60FCF7C5FE03214DF23060FCF75D
:1049F000C0FE33214DF23160FCF7BBFE03214DF2C6
:104A00003260FCF7B6FE6D214DF23360FCF7B1FE6B
:104A100055214FF47040FCF7ACFEAA214FF2010083
:104A2000FCF7A7FE52214FF20200FCF7A2FE08217C
:104A30004FF20300FCF79DFE00214FF20400FCF74B
:104A400098FECC214FF43140FCF793FE00214BF24D
:104A50000110FCF78EFE05214FF43640FCF789FE6D
:104A600070214FF43740FCF784FE70214BF2017047
:104A7000FCF77FFE01214FF43840FCF77AFE03215A
:104A80004BF60100FCF775FE03214BF60200FCF724
:104A900070FE03214BF60300FCF76BFE02214FF47E
:104AA0003C40FCF766FE00214BF60140FCF761FE3E
:104AB00000214BF60240FCF75CFED0214FF4494048
:104AC000FCF757FE02214CF60110FCF752FE502174
:104AD0004CF60210FCF74DFE50214CF60310FCF78B
:104AE00048FE50214CF60410FCF743FE00214FF421
:104AF0005450FCF73EFE55214FF46850FCF739FE48
:104B00004FF48850FCF71AFE782001F0A5FC4FF412
:104B10002450FCF713FE01F05EB9FE48808849F28C
:104B2000253188427ED147F6F001E520FCF721FED1
:104B30004FF480710120FCF71CFE4FF4E06102206D
:104B4000FCF717FE41F230010320FCF712FE0021B2
:104B50000420FCF70EFE40F202210820FCF709FEBB
:104B600000210920FCF705FE00210A20FCF701FEC8
:104B700000210C20FCF7FDFD00210D20FCF7F9FDC4
:104B800000210F20FCF7F5FD00211020FCF7F1FDBE
:104B900007211120FCF7EDFD00211220FCF7E9FDB3
:104BA00000211320FCF7E5FD00210720FCF7E1FDC3
:104BB00041F290611020FCF7DCFD40F2272111202A
:104BC000FCF7D7FD9D211220FCF7D3FD4FF4C8510F
:104BD0001320FCF7CEFD25212920FCF7CAFD0D216D
:104BE0002B20FCF7C6FD07213020FCF7C2FD40F268
:104BF00003313120FCF7BDFD03213220FCF7B9FD64
:104C000040F206213520FCF7B4FD08213620FCF7E0
:104C1000B0FD40F206413720FCF7ABFD4FF4417187
:104C2000382000E057E0FCF7A4FD07213920FCF70D
:104C3000A0FD40F202613C20FCF79BFD08213D20D5
:104C4000FCF797FD00215020FCF793FDEF21512048
:104C5000FCF78FFD00215220FCF78BFD40F23F1145
:104C60005320FCF786FD4FF427416020FCF781FDBF
:104C700001216120FCF77DFD00216A20FCF779FD10
:104C800000218020FCF775FD00218120FCF771FDDB
:104C900000218220FCF76DFD00218320FCF769FDD7
:104CA00000218420FCF765FD00218520FCF761FDD3
:104CB00010219020FCF75DFD4FF4C0619220FCF7BD
:104CC00058FD40F233110720FCF753FD222100204C
:104CD000FCF74FFD1FE78F48808849F22831884252
:104CE0007ED141F28F01EC20FCF743FD41F23421EB
:104CF000EF20FCF73EFD4FF480710120FCF739FDF9
:104D00004FF4E0610220FCF734FD41F23001032052
:104D1000FCF72FFD00210420FCF72BFD40F20221BF
:104D20000820FCF726FD00210920FCF722FD0021C8
:104D30000A20FCF71EFD01210C20FCF71AFD0021C2
:104D40000D20FCF716FD00210F20FCF712FD0021BD
:104D50001020FCF70EFD07211120FCF70AFD0021B1
:104D60001220FCF706FD00211320FCF702FD0121B3
:104D70000720FCF7FEFC322001F0B6FB41F2904127
:104D80001020FCF7F6FC40F227211120FCF7F1FC83
:104D9000322001F0A9FB8A211220FCF7EAFC322024
:104DA00001F0A2FB4FF4D0511320FCF7E2FC0621E6
:104DB0002920FCF7DEFC0D212B20FCF7DAFC322049
:104DC00001F092FB00212020FCF7D3FC00212120E0
:104DD000FCF7CFFC322001F087FB0021302000E0FF
:104DE00074E0FCF7C6FC40F204613120FCF7C1FC22
:104DF00040F205313220FCF7BCFC00213520FCF7E5
:104E0000B8FC40F609413620FCF7B3FC4FF40171C1
:104E10003720FCF7AEFC40F201313820FCF7A9FC4A
:104E200040F207713920FCF7A4FC00213C20FCF77C
:104E3000A0FC40F60A213D20FCF79BFC322001F04B
:104E400053FB00215020FCF794FCEF215120FCF78C
:104E500090FC00215220FCF78CFC40F23F115320C3
:104E6000FCF787FC4FF427416020FCF782FC01210E
:104E70006120FCF77EFC00216A20FCF77AFC00210F
:104E80008020FCF776FC00218120FCF772FC0021D9
:104E90008220FCF76EFC00218320FCF76AFC0021D5
:104EA0008420FCF766FC00218520FCF762FC1021C1
:104EB0009020FCF75EFC4FF4C0619220FCF759FC97
:104EC00040F233110720FCF754FC24E61148808897
:104ED00049F2203188427DD100210846FCF749FC87
:104EE0004FF480710120FCF744FC4FF4E061022094
:104EF000FCF73FFC41F230010320FCF73AFC0021B3
:104F00000420FCF736FC40F202210820FCF731FCBB
:104F1000002101E060E301200920FCF72AFC0021C8
:104F20000A20FCF726FC01210C20FCF722FC0021C2
:104F30000D20FCF71EFC00210F20FCF71AFC32208C
:104F400001F0D2FA40F201110720FCF712FC3220E6
:104F500001F0CAFA4FF486511020FCF70AFC072131
:104F60001120FCF706FC4FF488711220FCF701FCBD
:104F70004FF430611320FCF7FCFB00212920FCF7E3
:104F8000F8FB44F210012B20FCF7F3FB002150202A
:104F9000FCF7EFFBEF215120FCF7EBFB0021522047
:104FA000FCF7E7FB40F23F115320FCF7E2FB4FF424
:104FB0001C516020FCF7DDFB01216120FCF7D9FBCF
:104FC00000216A20FCF7D5FB00218020FCF7D1FBF3
:104FD000002100E031E08120FCF7CBFB00218220A2
:104FE000FCF7C7FB00218320FCF7C3FB00218420D2
:104FF000FCF7BFFB00218520FCF7BBFB10219020B4
:10500000FCF7B7FB00219220FCF7B3FB01219320B2
:10501000FCF7AFFB4FF488719520FCF7AAFB002149
:105020009720FCF7A6FB00219820FCF7A2FB40F29A
:1050300073110720FCF79DFB6DE5FE48808849F25F
:10504000313188427DD141F21401E720FCF791FB18
:105050004FF480710120FCF78CFB4FF400710220AB
:10506000FCF787FB41F238010320FCF782FB40F29A
:1050700002210820FCF77DFB00210920FCF779FBC9
:1050800000210A20FCF775FB00210C20FCF771FBC6
:1050900000210D20FCF76DFB00210F20FCF769FBC0
:1050A00000211020FCF765FB07211120FCF761FBB4
:1050B00000211220FCF75DFB00211320FCF759FBB7
:1050C000C82001F011FA41F290611020FCF751FB69
:1050D00040F227211120FCF74CFB322001F004FAAA
:1050E0000C211220FCF745FB322001F0FDF94FF4B2
:1050F00000611320FCF73DFB11212920FCF739FB4F
:105100000B212B20FCF735FB322001F0EDF90021BB
:105110002020FCF72EFB40F23F112120FCF729FB59
:1051200000213020FCF725FB4FF483713120FCF780
:1051300020FB00213220FCF71CFB4FF401713520CD
:1051400000E064E0FCF715FB41F20A613620FCF751
:1051500010FB40F207713720FCF70BFB4FF4837113
:105160003820FCF706FB40F207713920FCF701FB01
:1051700040F202413C20FCF7FCFA40F60F413D2092
:10518000FCF7F7FA00215020FCF7F3FAEF21512049
:10519000FCF7EFFA00215220FCF7EBFA40F23F1146
:1051A0005320FCF7E6FA4FF41C516020FCF7E1FABB
:1051B00001216120FCF7DDFA00216A20FCF7D9FA11
:1051C00000218020FCF7D5FA00218120FCF7D1FADC
:1051D00000218220FCF7CDFA00218320FCF7C9FAD8
:1051E00000218420FCF7C5FA00218520FCF7C1FAD4
:1051F00010219020FCF7BDFA4FF4C0619220FCF71B
:10520000B8FA40F233110720FCF7B3FA83E4894877
:10521000808845F2084188427ED14FF48071012098
:10522000FCF7A7FA4FF4E0610220FCF7A2FA41F282
:1052300030010320FCF79DFA00210420FCF799FAC5
:1052400040F207210820FCF794FA00210920FCF71E
:1052500090FA00210A20FCF78CFA00210C20FCF7C0
:1052600088FA00210D20FCF784FA00210F20FCF7BA
:1052700080FA142001F038F941F2B0611020FCF7F7
:1052800078FA01211120FCF774FA01211720FCF7AC
:1052900070FA4FF49C711220FCF76BFA4FF4006126
:1052A0001320FCF766FA09212920FCF762FA09218C
:1052B0002A20FCF75EFA0021A420FCF75AFA00210C
:1052C0005020FCF756FAEF215120FCF752FA00214A
:1052D0005220FCF74EFA40F23F115320FCF749FAF6
:1052E0004FF41C516020FCF744FA01216120FCF7C7
:1052F00040FA00216A20FCF73CFA00218020FCF7EC
:1053000038FA00218120FCF734FA00218220FCF7D2
:1053100030FA0021832000E023E0FCF72AFA002184
:105320008420FCF726FA00218520FCF722FA1321BD
:105330009020FCF71EFA00219220FCF71AFA0321B4
:105340009320FCF716FA4FF488719520FCF711FAB8
:1053500040F273110720FCF70CFA322001F0C4F878
:10536000B8E43448808841F2055188427ED100215A
:105370000720FCF7FEF9322001F0B6F84FF48E71E9
:105380001220FCF7F6F90121A420FCF7F2F90F2115
:105390000820FCF7EEF908210A20FCF7EAF90821B9
:1053A0000D20FCF7E6F940F207713020FCF7E1F937
:1053B00007213120FCF7DDF940F203613220FCF7D0
:1053C000D8F94FF4E0613320FCF7D3F940F2022121
:1053D0003420FCF7CEF902213520FCF7CAF941F65A
:1053E0000F713620FCF7C5F940F207713720FCF742
:1053F000C0F900213820FCF7BCF900213920FCF766
:10540000B8F940F207713A20FCF7B3F900213B20CC
:10541000FCF7AFF907213C20FCF7ABF900213D2058
:10542000FCF7A7F9322001F05FF801210720FCF713
:10543000A0F901E060E3012001211720FCF799F9B0
:10544000322001F051F84FF4BD511020FCF791F9D2
:1054500040F217211120FCF78CF94FF48F711220C4
:10546000FCF787F94FF47061132000E097E0FCF738
:1054700080F900212A20FCF77CF90A212920FCF779
:1054800078F94FF49F711220FCF773F90021502036
:10549000FCF76FF9EF215120FCF76BF90021522046
:1054A000FCF767F940F23F115320FCF762F94FF423
:1054B0001C516020FCF75DF901216120FCF759F9CE
:1054C00000216A20FCF755F900218020FCF751F9F2
:1054D00000218120FCF74DF900218220FCF749F9D9
:1054E00000218320FCF745F900218420FCF741F9D5
:1054F00000218520FCF73DF913219020FCF739F9B4
:105500004FF440719220FCF734F905219320FCF709
:1055100030F900219520FCF72CF900219720FCF7A9
:1055200028F900219820FCF724F94FF4807101201C
:10553000FCF71FF94FF4E0610220FCF71AF941F281
:1055400038010320FCF715F900210420FCF711F9BC
:1055500000210C20FCF70DF900210F20FCF709F9C0
:1055600000212020FCF705F900212120FCF701F99A
:1055700021210720FCF7FDF8142000F0B5FF612180
:105580000720FCF7F6F8142000F0AEFF40F273118C
:105590000720FCF7EEF8142000F0A6FF95E4FE4883
:1055A00080884BF2055188427ED100210846FCF7E5
:1055B000E0F800210846FCF7DCF800210846FCF77B
:1055C000D8F800210846FCF7D4F80121A420FCF704
:1055D000D0F8142000F088FF4FF41C516020FCF735
:1055E000C8F840F202210820FCF7C3F84FF4057117
:1055F0003020FCF7BEF843F215713120FCF7B9F802
:1056000040F204613220FCF7B4F840F61661332012
:10561000FCF7AFF842F211213420FCF7AAF84FF45E
:10562000A8513520FCF7A5F848F207513620FCF7C1
:10563000A0F841F207413720FCF79BF841F2034103
:105640003820FCF796F820213920FCF792F81A212F
:105650009020FCF78EF800211020FCF78AF8072133
:105660001120FCF786F800211220FCF782F80021B7
:105670001320FCF77EF8142000F036FF4FF4E661AB
:105680001020FCF776F840F237111120FCF771F882
:10569000142000F029FF4FF4DC711220FCF769F8A8
:1056A000142000F021FF00E083E04FF4706113202C
:1056B000FCF75FF880212A20FCF75BF848212920BD
:1056C000FCF757F8142000F00FFF4FF48071012011
:1056D000FCF74FF84FF4E0610220FCF74AF841F282
:1056E00038010320FCF745F840F202210820FCF7BE
:1056F00040F800210A20FCF73CF800210C20FCF7C0
:1057000038F800210D20FCF734F830210E20FCF78A
:1057100030F800215020FCF72CF8EF215120FCF745
:1057200028F800215220FCF724F840F23F115320C2
:10573000FCF71FF84FF41C516020FCF71AF8012108
:105740006120FCF716F800216A20FCF712F81121FD
:105750009020FCF70EF84FF4C0619220FCF709F896
:1057600040F202419320FCF704F802219420FCF758
:1057700000F8142000F0B8FE01210720FBF7F9FF24
:10578000142000F0B1FE61210720FBF7F2FF40F288
:1057900073110720FBF7EDFF00212020FBF7E9FF45
:1057A00000212120FBF7E5FF22210020FBF7E1FF8C
:1057B00011E3794880884CF2055188427ED100215E
:1057C0000846FBF7D6FF00210846FBF7D2FF14205E
:1057D00000F08AFE00210846FBF7CBFF00210846B7
:1057E000FBF7C7FF00210846FBF7C3FF002108466F
:1057F000FBF7BFFF0121A420FBF7BBFF142000F043
:1058000073FE4FF41C516020FBF7B3FF40F6060116
:105810000820FBF7AEFF40F203713020FBF7A9FF31
:1058200001213120FBF7A5FF04213220FBF7A1FF66
:105830004FF481713320FBF79CFF4FF4407134200B
:10584000FBF797FF40F203113520FBF792FF1F2172
:105850003620FBF78EFF40F203713720FBF789FFFC
:1058600001213820FBF785FF04213920FBF781FF58
:1058700015219020FBF77DFF4FF482611020FBF78C
:1058800078FF40F247211120FBF773FF4FF4DE71E0
:105890001220FBF76EFF4FF460611320FBF769FFE6
:1058A000782000F021FE4FF480710120FBF761FFAA
:1058B0004FF400710220FBF75CFF00E050E041F282
:1058C00030010320FBF755FF08210A20FBF751FFA9
:1058D00000210C20FBF74DFF20210E20FBF749FF94
:1058E00000210F20FBF745FF00212020FBF741FF9F
:1058F00000212120FBF73DFF3D212A20FBF739FF46
:10590000142000F0F1FD2D212920FBF732FF0021AA
:105910005020FBF72EFF4DF2EF015120FBF729FF3E
:1059200000215220FBF725FF40F23F115320FBF7E7
:1059300020FF00216120FBF71CFF00216A20FBF7FC
:1059400018FF4FF440719220FBF713FF05219320BD
:10595000FBF70FFF4FF480710720FBF70AFF3AE2D5
:105960000D48808844F2315188427CD101210020C9
:10597000FBF7FFFE0A2000F0B7FD41F2286110207E
:10598000FBF7F7FE0E211220FBF7F3FE40F639215C
:105990001320FBF7EEFE01E060E301200A2000F097
:1059A000A3FD40211120FBF7E4FE50211520FBF759
:1059B000E0FE0A2000F098FD1E211220FBF7D9FE20
:1059C0000A2000F091FD4FF4B1511020FBF7D1FEF9
:1059D00042F639211320FBF7CCFE0A2000F084FDAB
:1059E0004FF480710120FBF7C4FE4FF44071022098
:1059F000FBF7BFFE41F238010320FBF7BAFE40F28D
:105A000002210820FBF7B5FE08210A20FBF7B1FEB2
:105A100000213020FBF7ADFE40F202413120FBF7C0
:105A2000A8FE4FF483713220FBF7A3FE40F203512E
:105A30003320FBF79EFE4FF482713420FBF799FE72
:105A400040F201313520FBF794FE40F20771362019
:105A5000FBF78FFE40F205313720FBF78AFE4FF44B
:105A60000271382000E040E0FBF783FE40F60B7146
:105A70003920FBF77EFE02214120FBF77AFE4FF42E
:105A80001C516020FBF775FE01216120FBF771FEC0
:105A90004FF404719020FBF76CFE4FF48571922057
:105AA000FBF767FE04219320FBF763FE4FF4807140
:105AB000A020FBF75EFE01210720FBF75AFE212103
:105AC0000720FBF756FE23210720FBF752FE332168
:105AD0000720FBF74EFE40F233110720FBF749FE8B
