:020000040800F2
:1000000070EE0120C5820008190C00081B0C0008C6
:100010001F0C0008230C0008270C0008000000003B
:100020000000000000000000000000002B0C000891
:100030002D0C0008000000002F0C0008310C0008F7
:10004000DF820008DF820008DF820008DF8200080C
:10005000DF820008DF820008DF820008DF820008FC
:10006000DF820008DF820008DF820008DF820008EC
:10007000DF820008DF820008DF820008DF820008DC
:10008000DF820008DF820008DF820008DF820008CC
:10009000DF820008DF820008DF820008DF820008BC
:1000A000DF820008DF820008DF820008DF820008AC
:1000B000DF820008FD1B000841A40008DF82000861
:1000C000DF820008DF820008DF820008DF8200088C
:1000D000DF8200083B820008DF820008DF82000820
:1000E000DF820008DF820008DF820008DF8200086C
:1000F000DF820008DF820008DF820008DF8200085C
:10010000DF820008DF820008DF820008DF8200084B
:10011000FF730008DF820008DF820008DF8200082A
:10012000DF820008DF820008DF820008DF8200082B
:10013000DF820008DF820008DF820008DF8200081B
:10014000DF820008DF820008DF820008DF8200080B
:10015000DF820008DF820008DF820008DF820008FB
:10016000DF820008DF820008DF820008DF820008EB
:10017000DF820008DF820008850F0008DF820008A8
:10018000DF820008DF82000800F002F800F06DF85E
:100190000AA090E8000C82448344AAF10107DA45E2
:1001A00001D100F062F8AFF2090EBAE80F0013F0C7
:1001B000010F18BFFB1A43F00103184754DF00007A
:1001C00074DF00000A444FF0000C10F8013B13F0FC
:1001D000070408BF10F8014B1D1108BF10F8015BA0
:1001E000641E05D010F8016B641E01F8016BF9D193
:1001F00013F0080F1EBF10F8014BAD1C0C1B09D1EA
:100200006D1E58BF01F801CBFAD505E014F8016B5B
:1002100001F8016B6D1EF9D59142D6D370470000ED
:100220000023002400250026103A28BF78C1FBD8FF
:10023000520728BF30C148BF0B60704764290AF0DD
:10024000D18675290AF0CE8678290AF007876329B6
:100250000BF05B8073290BF06080002070471FB5A6
:100260000BF016FC1FBD10B510BD0BF089F8114640
:10027000FFF7F5FF00F0DBF80BF0A7F803B4FFF78A
:10028000F2FF03BC07F07AFF30BF72B6704762B668
:10029000704780F308887047FE48007848B3FE48EE
:1002A0000078B0B9FD48006820F00100FB49086003
:1002B00000BFFA48006800F001000028F9D1F748B3
:1002C000001D0068C0F10200F54908600120F249F4
:1002D0000870F148007802280BD1F049091D086028
:1002E000081F006840F00100091F08600020EA496B
:1002F000087070470146C80AEA4A1080C1F34510E9
:10030000E94A108001F01F00E84A1080E6480088A2
:1003100040F265225043E34A128840F23D135A43AB
:1003200000EB4200E14A128802EB4203C3EB4212A7
:1003300000EBC200DE4A108010460088704710B5FE
:100340002DED088B0446E00AD6490880C4F3451019
:10035000D549088004F01F00D4490880D24800889D
:1003600040F265214843CF49098840F23D1251438C
:1003700000EB4100CD49098801EB4102C2EB41117C
:1003800000EBC100CB490880C64800880F282CDD4F
:10039000C54800880BF00FF941EC1B0B9FEDC60B15
:1003A00053EC102B0BF056F941EC190BBD480088AB
:1003B0000BF001F941EC1A0B53EC192B0BF07EFA00
:1003C00041EC180B9FEDBE0B53EC102B0BF040FAD9
:1003D0000BD2B4480088B5490988401A062804DDC4
:1003E0004FF6FF70B349088002E00020B149088051
:1003F000B0480088BDEC088B10BD10B50246CB128A
:10040000DB028C1243EA441343EAE120904202DB10
:100410004FF6FF7000E0002010BD10B502460B1231
:10042000934202DB4FF6FF7000E0002010BD86B063
:10043000002400BF00BF4FF4A06007F063FFA820B6
:1004400007F0EEFB4FF4E13007F0A5FE4FF4E13189
:100450002A2001F065FB07F08AFB0C2000909A48E7
:1004600004230122114685680020A8474FF49640D6
:1004700006F068FE00F0E6FC00F004FDD12141F634
:100480003F7001F0EBFB02F024F80C2000908E4846
:1004900004230222114685680020A8478A4948683B
:1004A0008047D1E0002000F003FD0446012C12D06B
:1004B000022C1CD0032C02D0042C30D123E00421C8
:1004C000824808F021FD00BF4021804808F0CCFDA3
:1004D0000128F9D127E002217C4808F015FD00BF72
:1004E00040217A4808F0C0FD0128F9D11BE0032122
:1004F000764808F009FD00BF4021744808F0B4FDBB
:100500000128F9D10FE00121704808F0FDFC00BF7F
:1005100040216E4808F0A8FD0128F9D103E0C82069
:1005200007F0E0FB00BF00BF6948407853285FD167
:1005300068480068C0436849C1F8B802624810239F
:1005400066A2002105690846A8475F48102365A2F6
:10055000022105690020A8475B48102363A20421FB
:1005600005690020A84763480078052807D1564848
:10057000102361A2002105693820A84712E05D48D8
:100580000078062807D1504810235CA20021056995
:100590003820A84706E04C4810235AA200210569DC
:1005A0003820A84753484078082807D146481023E8
:1005B00056A2022105694020A84712E04D48407824
:1005C000092807D14048102352A202210569402082
:1005D000A84706E03C48102350A2022105694020AC
:1005E000A8474FF4FA6007F07DFB37494868804719
:1005F00037484078522827D14B4A5178107802AAC0
:1006000001F085FB3048102348A200210569084607
:10061000A8472D48102348A2022105690020A847B9
:100620001020009040480278274802230021856866
:100630004620A847102000903B48427822480223D9
:10064000194685684620A8472CE78AB051E100206A
:10065000099081460890079006900390029000F060
:10066000C8FE00F0AEFD002004908346824605904F
:10067000002438E1334830F8240087B2314850F87C
:1006800024004FEA10483846FFF759FE07464FF658
:10069000FF7059E000000020100000202864024094
:1006A0000C00002012000020140000201600002082
:1006B0001A0000201C000020000000000000E03FA5
:1006C000000000000000184030E70120004C00400E
:1006D00026E70120B802434200004342636F6C6F7B
:1006E000723A00006F626A6563743A006469733A33
:1006F00000000000530000207265640067726565A9
:100700006E000000626C7565000000007371757208
:1007100065000000636972636C6500007472696152
:100720006E676C65000000004B00002063656E740E
:1007300065725F783A00000063656E7465725F7978
:100740003A000000D8050020874203D109F10100DA
:100750001FFA80F94046FFF7F2FD80464FF6FF7022
:10076000804503D109F101001FFA80F9B9F1C80FE2
:1007700076DB00247BE0FA4830F8240087B2F848A2
:1007800050F824004FEA10483846FFF7D8FD0746D6
:100790004FF6FF7087422ED1099888B96000DC219E
:1007A00090FBF1F201FB120080B2834682466000AA
:1007B00090FBF1F080B204900590012009901AE0BE
:1007C0006000DC2190FBF1F201FB120085B26000B9
:1007D00090FBF1F086B2554501DAAA4602E05D458C
:1007E00000DDAB460598864201DA059603E00498E1
:1007F000864200DD04964046FFF7A1FD80464FF695
:10080000FF70804531D1099890B96000DC2190FBE0
:10081000F1F201FB1200401C80B283468246600068
:1008200090FBF1F080B204900590012009901CE04B
:100830006000DC2190FBF1F201FB1200401C85B24C
:10084000600090FBF1F086B2554501DAAA4602E05D
:100850005D4500DDAB460598864202DA059604E068
:100860003FE00498864200DD0496601C84B247F69F
:1008700050008442FFF67FAF0AEB0B0000EBD07113
:10088000C1F34F010391DDE90421881800EBD07119
:10089000C1F34F0102916A46029801B2039800B277
:1008A00001F035FA9DED000AF2EE040AB4EEE00A1A
:1008B000F1EE10FA0FD89DED010AF2EE040AB4EE43
:1008C000E00AF1EE10FA06D80C23A6A20A211420A1
:1008D00006F0CDFF05E00C23A4A20A21142006F0A7
:1008E000C6FF601C84B247F650008442FFF6C2AED9
:1008F00000BFACE68EB04FF416709E4908604FF40E
:10090000FA70091D086083E100200B900A9009909D
:10091000089004900390029001908146824600F076
:1009200068FD00F04EFC00F060FC0020834605905E
:1009300006900790002421E0894830F8240080B216
:100940000D90874850F82400000C0C900D98FFF78C
:10095000F6FC0D904FF6FF710D98884201D109F118
:1009600001090C98FFF7EBFC0C904FF6FF710C9807
:10097000884201D109F10109601C84B247F6500098
:100980008442D9DBB9F5967F73D9002480E074489E
:1009900030F8240080B20D90714850F82400000C0B
:1009A0000C900D98FFF7CBFC0D904FF6FF710D9852
:1009B00088422FD10B9888B96000DC2190FBF1F2BE
:1009C00001FB120080B206900790600090FBF1F0EE
:1009D00080B28346059001200B901BE06000DC2173
:1009E00090FBF1F201FB120085B2600090FBF1F088
:1009F00086B20798854201DA079503E0069885429A
:100A000000DD06950598864201DA059602E05E450E
:100A100000DDB3460C98FFF792FC0C904FF6FF7187
:100A20000C98884232D10B9890B96000DC2190FB81
:100A3000F1F201FB1200401C80B2069007906000AA
:100A400090FBF1F080B28346059001200B901DE0F1
:100A50006000DC2190FBF1F201FB1200401C85B22A
:100A6000600090FBF1F086B20798854202DA0795A4
:100A700004E073E00698854200DD069505988642FD
:100A800001DA059602E05E4500DDB346601C84B2E3
:100A900047F650008442FFF67AAFDDE90621881858
:100AA00000EBD071C1F34F07059901EB0B0000EB90
:100AB000D071C1F34F08642F0FDA2F480068C0438C
:100AC0002E49C1F8B8022B480068401C294908602B
:100AD0000AF101001FFA80FA17E0642F0ADB782F71
:100AE00008DC019830B923480068224908600120D9
:100AF00001900AE0782F08DD1E480068401E1D495D
:100B000008600AF101001FFA80FABAF11E0F18DD21
:100B100019480068C0431949C1F8B8020020019083
:100B20001448001D006814381249091D0860084661
:100B30000068B0F5B97F02D24FF4027008604FF040
:100B4000000A0198012830D1B8F1870F18DA094856
:100B5000001D0068401E0749091D086025E00000CF
:100B6000D80500207965732100000000204E4F2138
:100B70000000000034080040B80243420000434235
:100B8000B8F18A0F09DBB8F18F0F06DC2148006845
:100B9000204908600120009007E0B8F1910F04DDC2
:100BA0001C480068401C1B4908600198012803D1BB
:100BB000BAF1080F00DA2BE0B9F5967F24D2154878
:100BC000001F006823301349091F086008460068A9
:100BD000B0F5617F06D9029820B94FF4167008600D
:100BE00001200290029801280ED10A4800681438AA
:100BF0000849086008460068B0F5B97F02D24FF492
:100C0000FA70086000200290642007F06BF800BFC3
:100C10007AE6000038080040704700BFFEE700BFDA
:100C2000FEE700BFFEE700BFFEE770477047704772
:100C3000704700000CB500200190009076480068D5
:100C400040F480307449086000BF7348006800F4C5
:100C5000003000900198401C0190009818B901984C
:100C6000B0F5A04FF1D16C48006800F4003010B12D
:100C70000120009001E0002000900098012846D15A
:100C800065484030006840F080506349403108605A
:100C90006248006840F44040604908605E4808309F
:100CA00000685D49083108600846006840F400406B
:100CB00008600846006840F4A05008605848091FC2
:100CC0000860081F006840F08070091F086000BFBE
:100CD0005148006800F000700028F9D040F205701B
:100CE000504908604C480830006820F003004A4929
:100CF000083108600846006840F00200086000BF44
:100D000045480830006800F00C000828F8D10CBDF8
:100D100010B54548006840F47000434908603E48FB
:100D2000006840F001003C49086000203A49083161
:100D30000860394800683D490840374908603C4828
:100D4000091D0860081F006820F48020091F086042
:100D5000002031490C310860FFF76CFF4FF0006054
:100D600031498039086010BD70B50020002202238F
:100D700000240221284D08352D6805F00C0020B113
:100D8000042806D0082834D107E02A4D2A4E3560C1
:100D900033E02A4D284E35602FE01F4D2D1D2D6864
:100DA000C5F380541C4D2D1D2D6805F03F0154B135
:100DB000224DB5FBF1F5184E361D3668C6F3881680
:100DC00005FB06F209E01B4DB5FBF1F5124E361D91
:100DD0003668C6F3881605FB06F20F4D2D1D2D68EB
:100DE000C5F301456D1C6B00B2FBF3F5124E356087
:100DF00003E0104D104E356000BF00BF064D0835B2
:100E00002D68C5F303150E4E705D0B4D2D68C54062
:100E1000094E356070BD000000380240007000408F
:100E200019544007003C024088ED00E0FFFFF6FE49
:100E3000103000240024F4002000002040787D01C0
:100E4000240000201CB50121402007F0EFFD4FF4E5
:100E50008840009001208DF8040000208DF80600E5
:100E600003208DF8050001208DF80700694604482D
:100E700007F03EFB4FF48841014807F0B5FB1CBD6D
:100E8000001802401CB50121402007F0CFFD4FF4AF
:100E90007050009000208DF8040003208DF80500AC
:100EA00001208DF807006946344807F021FB1CBD7E
:100EB00010B5044614B1012031490870304800785B
:100EC00000283DD04FF480612C4807F073FB88B1B7
:100ED0004FF40061294807F06DFB58B14FF4805181
:100EE000264807F067FB28B14FF40051234807F06C
:100EF00061FB28BB0A2006F0F5FE0020204908709F
:100F00004FF480611D4807F055FB08B9032010BD60
:100F10004FF40061194807F04DFB08B90120F6E7CE
:100F20004FF48051154807F045FB08B90220EEE761
:100F30004FF40051114807F03DFBE0B90420E6E70B
:100F40004FF480610D4807F035FB012813D1C10231
:100F50000A4807F02FFB01280DD10103074807F0CD
:100F600029FB012807D14103044807F023FB01288E
:100F700001D1034908700020C9E7000000180240B1
:100F80003400002010B5C748006900F00100A0B18E
:100F9000FFF782F9C348406940F00100C149486148
:100FA000C148006808B9012000E00020BE4908607F
:100FB000BE480078401CBD49087010BD30B5BC4C1F
:100FC000246844F48004BA4D2C6000BFB94C2468F6
:100FD00004F00104002CF9D1B64C203C246844F400
:100FE0007464B44D203D2C602124B24D14352C6026
:100FF000AC4C2834AF4D08352C602C1D20602C1FC4
:1010000021600024AB4D2C602C4624682C602C46BB
:10101000246844F480742C602C4624682C602C4690
:10102000246844EA83242C602C46246844F48054C9
:101030002C602C46246844EA42342C602C462468F8
:1010400044F400342C602C4624682C602C46246820
:101050002C602C46246844F000742C6030BD1CB514
:101060009348006840F00100914908600846006814
:1010700040F0020008600846006840F00400086084
:101080000846006840F010000860081D006840F045
:101090000100091D08600120032100230222CDE97F
:1010A00000105021844806F003FF01200321002393
:1010B0000222CDE90010C021804806F0F9FE01208F
:1010C000032100230222CDE900104FF43C617C484B
:1010D00006F0EEFE0120032100230222CDE90010DC
:1010E0006021784806F0E4FE0D220421724806F0E3
:1010F000BFFE0D220621704806F0BAFE0D22072120
:101100006E4806F0B5FE0D2206216D4806F0B0FED1
:101110000D2207216A4806F0ABFE0D22082168481F
:1011200006F0A6FE0D220921654806F0A1FE0D225B
:101130000B21634806F09CFE0D2206215F4806F055
:1011400097FE0D2205215F4806F092FE0D22062132
:101150005C4806F08DFE002052490860C8601F20E0
:10116000486100208861C8610862486208460068DA
:10117000086008460068086008460068086008467D
:10118000006840F0200008600846006808600846D3
:101190000068086008460068086008460068086043
:1011A0000846C06840F00100C8600846006840F486
:1011B0008040086002234E220021084606F0CAFD46
:1011C0001CBD10B50021084601F0E2F901F0C3F999
:1011D0003848006840F0010036490860314800682E
:1011E00040F001002F49086010BD2E48006820F033
:1011F00001002C49086000BF2A48006800F0010087
:101200000028F9D12B48006820F001002949086026
:1012100070472DE9F04106460F4614461D46FFF77C
:10122000E4FF4FF6FF7001F0F7FF2B4622463946E8
:10123000304601F0E0FE2946204600F06DFA00211C
:10124000084601F0A5F901F086F91A48006840F057
:101250000100184908601348006840F00100114976
:101260000860BDE8F08110B500230E4C23602346D2
:101270001B6843EA4013236023461B6843EA81133B
:10128000236023461B6843EAC213236023461B687E
:1012900043F48043236023461B6843F0010323602B
:1012A00010BD000000000550A88242423500002019
:1012B000303802402864024000000240000402402E
:1012C00000080240001002407CB5002501214020AA
:1012D00007F0ACFB4FF40240009001208DF80400B1
:1012E00000208DF8060002208DF8050001208DF801
:1012F00007006946FA4807F0FBF80020F949086042
:101300000A2006F0EFFC0020F749C1F8BC020A20D1
:1013100006F0E8FC0120F3491831086000F0C6FA35
:101320000121FF2000F0B0FB8021122000F0ACFB77
:10133000322006F0D7FC1C2000F0C5FB04464FF617
:10134000FF7000EA04241D2000F0BDFB044347F6B3
:10135000A270844205D02146E4A009F0E7FD0120F7
:101360007CBD0A2000F0AFFB04464FF6FF7000EA98
:1013700004240B2000F0A7FB044342F242608442A5
:1013800005D02146DCA009F0D1FD0220E8E70025C8
:101390000AE0DC4A02EB45025178DA4A12F81500FD
:1013A00000F072FB681C85B2B22DF2D30020D7E7A3
:1013B00010B5002400BF0AE0D34A02EB4402517882
:1013C000D14A12F8140000F05FFB601C84B2082CB4
:1013D000F2D300240AE0CD4A02EB44025178CB4A12
:1013E00012F8140000F050FB601C84B2072CF2D3FA
:1013F00010BD10B5002400BF0AE0C54A02EB44024C
:101400005178C34A12F8140000F03EFB601C84B20D
:101410000E2CF2D310BD70B50546BE4800EBC506D4
:10142000002409E0012202EB4402B15C16F814002A
:1014300000F02AFB601CC4B2042CF3DB70BD2DE964
:10144000F04104465E254126542734B1022C0ED0CB
:10145000032C10D0042C16D111E00021FF2000F045
:1014600013FB1021C72000F00FFBBDE8F0816525BC
:1014700041264F2707E052254126662703E04225F3
:101480003F26712700BF00BF0021FF2000F0FCFABB
:101490004021C72000F0F8FA2946CC2000F0F4FAE9
:1014A0003146CD2000F0F0FA3946CE2000F0ECFABB
:1014B00000BFDAE770B50446A01C082141EA00101D
:1014C000C5B20021FF2000F0DFFA00217C2000F0EF
:1014D000DBFA02217D2000F0D7FA03217C2000F006
:1014E000D3FA29467D2000F0CFFA29467D2000F06E
:1014F000CBFA70BD10B504460021FF2000F0C4FAFD
:1015000000217C2000F0C0FA04217D2000F0BCFA0C
:1015100009217C2000F0B8FA2007010E7D2000F0A0
:10152000B3FA00217D2000F0AFFA10BD70B504467B
:101530002025202634B1012C07D0032C08D0042C00
:101540000CD108E01825342608E01C252A2605E0E1
:101550002425162602E028250C2600BF00BF002106
:10156000FF2000F091FA00217C2000F08DFA042188
:101570007D2000F089FA07217C2000F085FA2021E7
:101580007D2000F081FA29467D2000F07DFA314669
:101590007D2000F079FA06217D2000F075FA70BDFB
:1015A0002DE9F0410446002580268027072C19D21A
:1015B000DFE804F0180406080C101400402511E0C0
:1015C00018250FE018254026C0270BE018254026D7
:1015D000402707E01825A026402703E018254026CD
:1015E000A62700BF00BF0021FF2000F04DFA002118
:1015F0007C2000F049FA29467D2000F045FA0521BB
:101600007C2000F041FA31467D2000F03DFA394659
:101610007D2000F039FABDE8F08170B50546012162
:10162000FF2000F031FA122000F04DFA044624F0B9
:1016300002040DB144F002042146122000F024FA05
:1016400070BD2DE9F04705460E46174698463846C8
:1016500007EBD07105EB61011FFA81F9404608EBF9
:10166000D07106EB61011FFA81FA0121FF2000F021
:101670000BFA032000F027FA044604F0F0040AF005
:101680000301304661F39F0004432146032000F02C
:10169000FBF9C6F38701192000F0F6F9CAF38701B8
:1016A0001A2000F0F1F9322000F00DFA044604F09F
:1016B000C00409F00701284661F3DF000443214616
:1016C000322000F0E1F9C5F3C701172000F0DCF982
:1016D000C9F3C701182000F0D7F9BDE8F087000072
:1016E00000180240A4024342000043424D49443ADC
:1016F00025640D0A000000004849443A25640D0A9B
:10170000000000009ABA00088ABD000860BD000809
:101710006EBD00089ABD00082DE9F04104460D4653
:10172000E11704EB91718910A4EB810111B1012043
:10173000BDE8F081E91705EB91718910A5EB8101F6
:1017400009B10220F4E72046E11704EB9171C1F3DF
:101750008F072846E91705EB9171C1F38F06002129
:10176000FF2000F091F90421E02000F08DF9F9B29A
:101770005A2000F089F9F1B25B2000F085F9C7F337
:101780000128042000EAA61040EA080841465C202F
:1017900000F07AF90021E02000F076F90020C7E798
:1017A0002DE9F0478046894614461D46E11704EBB3
:1017B00091718910A4EB810111B10120BDE8F0877E
:1017C000E91705EB91718910A5EB810109B10220A0
:1017D000F4E72046E11704EB9171C1F38F06284628
:1017E000E91705EB9171C1F38F0A0021FF2000F08A
:1017F0004BF90421E02000F047F9F1B2512000F04C
:1018000043F90AF0FF01522000F03EF908F0FF0111
:10181000532000F039F909F0FF01542000F034F9A9
:10182000802000EA6A07702000EA29100743082098
:1018300000EA66100743C8F30220074339465520E3
:1018400000F022F9802000EAA601572000F01CF9E0
:101850000021E02000F018F90020AFE770B5044641
:101860000D460021FF2000F00FF90421E02000F0D8
:101870000BF9C4F3C701C02000F006F9C5F3C70196
:10188000C12000F001F96007860E05F0070006434D
:10189000802000EA2410064331468C2000F0F4F842
:1018A0000021E02000F0F0F8002070BD1CB50121FF
:1018B000082007F0BBF8C020009001208DF804003C
:1018C00000208DF8060002208DF8050001208DF81B
:1018D000070069468F4806F00BFEC0218D4806F0D0
:1018E00083FE8C48006820F440408A49086008461E
:1018F000006840F4804008601CBD10B50120864996
:1019000008608649C1F89802322006F0A3F9002049
:1019100081490860322006F09DF900207F49C1F816
:10192000980210BD10B500207B490860322006F0F7
:1019300091F901207949C1F89802322006F08AF91C
:10194000012075490860322006F084F910BD10B5F9
:10195000322006F07FF901206F4908606F49C1F815
:101960009802322006F076F900206B49091F0860C2
:10197000322006F06FF900206849C1F89C0232203D
:1019800006F068F910BD70B5044600261BE004F0AF
:10199000800018B101206049086002E000205E4923
:1019A00008606006040E322006F054F901205A49FE
:1019B000091F0860322006F04DF900205749C1F890
:1019C0009802701CC6B2082EE1DB5248006820F471
:1019D000404050490860084600680860322006F020
:1019E00039F901204C49091F0860322006F032F90C
:1019F0004A48D0F81C0208B1012500E0002500206B
:101A00004549091F08604348006820F440404149A7
:101A100008600846006840F480400860284670BDB1
:101A200070B500243B48006820F440403949086004
:101A3000084600680860082517E0322006F00AF919
:101A400001203549091F08606006040E3348D0F8AC
:101A50001C0208B1601CC4B2322006F0FBF8002062
:101A60002D49091F0860681EC5B2002DE5DC294814
:101A7000006820F44040274908600846006840F4A8
:101A800080400860204670BD70B505460C460026B3
:101A9000FFF733FF6020FFF776FF00B101266420D7
:101AA00006F0D8F82846FFF76EFF00B10126642043
:101AB00006F0D0F82046FFF766FF00B10126FFF7D9
:101AC00031FF304670BD70B504460025FFF715FFA5
:101AD0006020FFF758FF642006F0BCF82046FFF7AF
:101AE00052FF642006F0B6F8FFF71CFF642006F0F2
:101AF000B1F8FFF702FF6120FFF745FF642006F011
:101B0000A9F8FFF78DFF0546FFF721FFFFF70AFF52
:101B1000284670BD000C02409C8241420080414238
:101B200030B587B005460C460121084606F07EFF19
:101B30000121480406F0C3FF0C20059002208DF817
:101B400018008DF8190000208DF81A0001208DF87A
:101B50001B0005A9114806F0CBFC072202210F4803
:101B600006F051FD072203210C4806F04CFD0194BC
:101B70000020ADF80800ADF80A00ADF80C00ADF893
:101B800010000820ADF80E0001A9054807F009F97A
:101B90000121034807F08DF907B030BD0000024075
:101BA000004400407FB504460D460121022006F0A6
:101BB00086FFADF804500020ADF806000294ADF8A1
:101BC0000C0001A91A4807F05CFB012211461848D5
:101BD00007F0F8FF0121164807F0DCFB1D208DF807
:101BE000000001208DF8010003208DF80200012083
:101BF0008DF80300684606F08AFB7FBD10B5012111
:101C00000B4807F0F6FF01280CD10A4801780AA01A
:101C100009F08CF90B4801880BA009F087F9002026
:101C2000044908700121024807F0F4FF10BD0000CC
:101C300000040040350000206672616D653A25643D
:101C40000D0A00000C0000206A7065675F64617413
:101C5000615F6C656E3A25640D0A000030B58BB08B
:101C600004460D460121042006F029FF0121082029
:101C700006F0DCFE02220C21FE4806F0C4FC022223
:101C80000D21FC4806F0BFFC4FF4405009900220A3
:101C90008DF8280003208DF8290000208DF82A00F7
:101CA00001208DF82B0009A9F24806F021FCA8B20A
:101CB000ADF818000020ADF81A000794ADF8200028
:101CC00006A9ED4807F0DDFA7020ADF80400012008
:101CD000ADF806000220ADF8100001A9E64807F0B3
:101CE00065FB0821E44807F0EEFC01A9E24807F093
:101CF00096FB0821E04807F0EFFC0121DE4807F0E1
:101D00002BFB0121DC4807F045FB0BB030BD10B5C3
:101D10002DED028B002301EE903A02EE103A00EE18
:101D2000903A02EE903ADFEDD57AB0EE670ADFED39
:101D3000D37AF0EE676ADFEDD17AB0EE671ADFEDA5
:101D4000CF7AB0EE677ADFEDCE7AF0EE675ADFED4C
:101D5000CD7AB0EE676ADFEDCC7AF0EE673ADFED70
:101D6000CB7AB0EE674ADFEDC57AB0EE673ADFEDC9
:101D7000C87AF0EE674ADFEDC77AB0EE675A07EE31
:101D8000900AF8EEE77AF4EEE57AF1EE10FA5AD21C
:101D900007EE900AF8EEE77A75EEE77AB0EE670A9A
:101DA000DFEDBD7AB4EEE70AF1EE10FA03DDDFED08
:101DB000BA7AB0EE670AF7EE007AB4EEE70AF1EE0F
:101DC00010FA22DDF8EEE07AB4EEE70AF1EE10FA4E
:101DD0001CD260EE237AB8EEE18A48EE037AB8EEC0
:101DE000E08A38EE408A48EE647AA34B34331B68AD
:101DF00008EE103AB8EE488A77EE887AFCEEE77A79
:101E000017EE903A9C4C3434236076E060EE237AEF
:101E1000B8EEE18A48EE037AB8EEE08A30EE488AFE
:101E200048EE247A944B34331B6808EE103AB8EE2F
:101E3000488A77EE887AFCEEE77A17EE903A8E4C75
:101E40003434236059E007EE900AF8EEE77A77EE33
:101E5000E57AB0EE670ADFED907AB4EEE70AF1EECC
:101E600010FA03DDDFED8C7AB0EE670AF7EE007A48
:101E7000B4EEE70AF1EE10FA3FDDF8EEE07AB4EEE8
:101E8000E70AF1EE10FA1CD260EE237AB8EEE18A8E
:101E900048EE037AB8EEE08A38EE408A48EE647A7B
:101EA000754B34331B6808EE103AB8EE488A78EE6A
:101EB000677AFCEEE77A17EE903A6F4C3434236081
:101EC0001BE060EE237AB8EEE18A48EE037AB8EEC2
:101ED000E08A30EE488A48EE247A674B34331B6838
:101EE00008EE103AB8EE488A78EE677AFCEEE77AA8
:101EF00017EE903A604C3434236007EE901AF8EEF7
:101F0000E77AF4EEC67AF1EE10FA5AD207EE901A9A
:101F1000F8EEE77A76EE677AB0EE671ADFED5E7A72
:101F2000B4EEE71AF1EE10FA03DDDFED5B7AB0EE06
:101F3000671AF7EE007AB4EEE71AF1EE10FA22DD36
:101F4000F8EEE07AB4EEE70AF1EE10FA1CD261EE98
:101F5000047AB8EEC28A48EE037AB8EEE28A38EE26
:101F6000418A48EE457A444B38331B6808EE103AF4
:101F7000B8EE488A78EE677AFCEEE77A17EE903A88
:101F80003D4C383423608BE061EE047AB8EEC28AAF
:101F900048EE037AB8EEE28A31EE488A48EE057AD6
:101FA000354B38331B6808EE103AB8EE488A78EEA5
:101FB000677AFCEEE77A17EE903A2F4C38342360BC
:101FC0006EE007EE901AF8EEE77A77EEC67AB0EE9A
:101FD000671ADFED317AB4EEE71AF1EE10FA03DD9D
:101FE000DFED2D7AB0EE671AF7EE007AB4EEE71A5D
:101FF000F1EE10FA54DDF8EEE07AB4EEE70AF1EE15
:1020000010FA1CD261EE047AB8EEC28A48EE037A66
:10201000B8EEE28A38EE418A48EE457A164B3833FC
:102020001B6808EE103AB8EE488A77EE887AFCEE24
:10203000E77A17EE903A104C3834236030E061EEC6
:10204000047AB8EEC28A48EE037AB8EEE28A31EE3C
:10205000488A48EE057A084B38331B6808EE103A78
:10206000B8EE488A77EE887AFCEEE77A17EE903A77
:10207000014C13E0000C024000080040000000008A
:1020800000008A429A998542CDCC4C3F295C0F3E94
:102090008FC2F53C0AD7A33C000048423834236085
:1020A000FDEEC07A17EE903A1BB200EE903AFDEECC
:1020B000C17A17EE903A1BB202EE903A82ED000A16
:1020C00082ED011ABDEC028B10BD30B5002401EE8B
:1020D000904A02EE104A00EE904A02EE904A1FED3E
:1020E000196AB0EE460A1FED1B6AB0EE465A1FEDA4
:1020F0001D6AB0EE461A1FED1F6AF0EE465A6922BD
:102100009B231FED1F6AB0EE464A9FEDF86AF0EE82
:10211000464A1FED266AB0EE463A1FED286AF0EEF9
:10212000463A904255DA141A06EE104AB8EEC66ADC
:10213000B0EE460A1FED286AB4EEC60AF1EE10FAB8
:1021400003DD1FED2B6AB0EE460AB2EE046AB4EE70
:10215000C60AF1EE10FA20DDB8EEE06AB4EEC60A67
:10216000F1EE10FA1AD220EE046AF8EEE16A06EEF9
:10217000836AF8EEE06A76EEC06A06EEE36ADC4C4B
:10218000246806EE904AF8EE666A36EE266ABCEEE1
:10219000C66A16EE104AD64D2C606FE020EE046A37
:1021A000F8EEE16A06EE836AF8EEE06A70EE666ABF
:1021B00006EEA36ACE4C246806EE904AF8EE666AF4
:1021C00036EE266ABCEEC66A16EE104AC84D2C6082
:1021D00054E0841A06EE104AB8EEC66AB0EE460A1B
:1021E0001FED536AB4EEC60AF1EE10FA03DD1FEDDF
:1021F000566AB0EE460AB2EE046AB4EEC60AF1EED2
:1022000010FA3BDDB8EEE06AB4EEC60AF1EE10FA61
:102210001AD220EE046AF8EEE16A06EE836AF8EE5E
:10222000E06A76EEC06A06EEE36AB14C246806EE18
:10223000904AF8EE666A36EEC66ABCEEC66A16EEDC
:10224000104AAB4D2C6019E020EE046AF8EEE16A0A
:1022500006EE836AF8EEE06A70EE666A06EEA36A3E
:10226000A34C246806EE904AF8EE666A36EEC66A1B
:10227000BCEEC66A16EE104A9D4D2C60994259DAA2
:102280005C1A06EE104AB8EEC66AB0EE461A1FEDAA
:102290007E6AB4EEC61AF1EE10FA03DD1FED826A13
:1022A000B0EE461AB2EE046AB4EEC61AF1EE10FAB7
:1022B00022DDB8EEE06AB4EEC60AF1EE10FA1CD2E6
:1022C00021EE246AF8EEC26A06EE836AF8EEE26A4C
:1022D00076EEC16A06EEE36A854C241D246806EE9C
:1022E000904AF8EE666A36EEC66ABCEEC66A16EE2C
:1022F000104A7F4D2D1D2C6075E021EE246AF8EE0A
:10230000C26A06EE836AF8EEE26A71EE666A06EE6B
:10231000A36A774C241D246806EE904AF8EE666A9C
:1023200036EEC66ABCEEC66A16EE104A704D2D1D1A
:102330002C6058E0CC1A06EE104AB8EEC66AB0EE31
:10234000461A1FEDAB6AB4EEC61AF1EE10FA03DDC1
:102350001FEDAF6AB0EE461AB2EE046AB4EEC61ACA
:10236000F1EE10FA3FDDB8EEE06AB4EEC60AF1EE27
:1023700010FA1CD221EE246AF8EEC26A06EE836AD5
:10238000F8EEE26A76EEC16A06EEE36A584C241D66
:10239000246806EE904AF8EE666A36EE266ABCEECF
:1023A000C66A16EE104A524D2D1D2C601BE021EE20
:1023B000246AF8EEC26A06EE836AF8EEE26A71EE0B
:1023C000666A06EEA36A4A4C241D246806EE904A0B
:1023D000F8EE666A36EE266ABCEEC66A16EE104A5B
:1023E000434D2D1D2C60BDEEC06A16EE104A24B27E
:1023F00000EE904ABDEEC16A16EE104A24B202EE1B
:10240000904A30BD64E03B480068C0433A49C1F897
:10241000B8024FF4FA7005F065FC4FF4BE70344911
:10242000091D08604FF4FA7005F05CFC4FF4397038
:102430002F4908604FF4FA7005F054FC4FF4967081
:102440002B49091D08604FF4FA7005F04BFC4FF45E
:10245000EB70274908604FF4FA7005F043FC4FF425
:10246000BE702349091D08604FF4FA7005F03AFC6C
:102470004FF439701E4908604FF4FA7005F032FCD1
:102480004FF416701A49091D08604FF4FA7005F0F0
:1024900029FC4FF47A7016490860401005F022FCC0
:1024A0004FF4EB70124908604FF4FA6005F01AFC23
:1024B0004FF47A700E490860400005F013FC0C4898
:1024C0000068B0F5487F03D34FF4FA7008490860FC
:1024D00099E710B54FF43E70054908604010091D9A
:1024E00008604FF4FA7005F0FDFB10BDEC51383E6A
:1024F00034080040B80243420000434201B5BDF831
:1025000000000090BDF80000F849088008BD01B542
:10251000BDF800000090BDF80000F449891C088057
:1025200008BD08B5F148801C00880090BDF8000087
:1025300008BDEE4A10804FF0D842A2F880107047D4
:1025400010B504462046FFF7D9FF052005F082FBB1
:10255000FFF7E7FF10BDE6480089E44908807047AF
:10256000E249891C0880704730B5014601F01F041C
:10257000C1F34513CA0AE50205EB43151544A8B299
:1025800030BD00BF011EA0F10102D0B2FAD17047E8
:1025900030B504460D46D648808849F2413188421C
:1025A00005D0D348808845F21031884214D1D049F3
:1025B0004889FFF7A3FF2012FFF7A9FFE0B2FFF75A
:1025C000A6FFCB498889FFF799FF2812FFF79FFFE5
:1025D000E8B2FFF79CFFABE0C548808846F60401EF
:1025E00088421DD1C2488079012804D1C0480088A2
:1025F000401E001B84B2BE494889FFF77FFF2012AE
:10260000FFF785FFE0B2FFF782FFB9498889FFF73E
:1026100075FF2812FFF77BFFE8B2FFF778FF87E02E
:10262000B348808841F66311884247D1B048807929
:10263000A8B9AF480088401E001B84B2AC49488945
:10264000FFF75CFF0020FFF762FF0020FFF75FFF4E
:102650002012FFF75CFFE0B2FFF759FF16E0A44934
:102660004889FFF74BFF2012FFF751FFE0B2FFF759
:102670004EFF9F490988491EC1F30F20FFF747FF0E
:102680009B490978491EC8B2FFF741FF98498889DC
:10269000FFF734FF2812FFF73AFFE8B2FFF737FFE2
:1026A00093494988491EC1F30F20FFF730FF904935
:1026B0008978491EC8B2FFF72AFF39E08C48808824
:1026C00045F21051884220D189494889FFF716FF09
:1026D0002012FFF71CFF86494989491C88B2FFF781
:1026E0000DFFE0B2FFF713FF81498889FFF706FF6E
:1026F0002812FFF70CFF7E498989491C88B2FFF731
:10270000FDFEE8B2FFF703FF12E079488079012867
:1027100004D177480088401E001B84B27449488960
:102720002146FFF706FF724988892946FFF701FF16
:1027300030BD2DE9F04105460E4600240027A04695
:102740006B480088A84203DD69484088B04202DC3B
:102750000020BDE8F08131462846FFF719FF6448A4
:10276000808849F24131884211D06148808846F61C
:10277000040188420BD05E48808845F210318842BF
:1027800005D05B48808841F66311884203D12E2032
:10279000FFF7B4FE0DE05648808845F2105188429C
:1027A00004D14FF43850FFF7A9FE02E02220FFF7D2
:1027B000A5FE4F48808849F22031884202D102208C
:1027C000FFF7DFFEFFF7ADFE04464948808841F67B
:1027D0006311884201D12046BBE70220FFF7D1FEFA
:1027E000FFF79FFE04464248808849F24131884203
:1027F0000BD03F48808845F21031884205D03C48D4
:10280000808845F2105188420AD10220FFF7B9FEB4
:10281000FFF787FE8046E7B24FF6FF7000EA072712
:102820003348808849F22531884216D03048808864
:1028300044F23551884210D02D488088091F8842C3
:102840000BD02B4880884BF20551884205D0284890
:1028500080884CF20551884201D1204679E724480E
:10286000808849F2413188420BD02148808845F266
:102870001031884205D01E48808845F210518842A8
:1028800007D1E012C002B91240EA411040EAE82044
:102890005FE72046FFF768FE5BE700B514488088D5
:1028A00049F24131884211D01148808846F604012E
:1028B00088420BD00E48808845F21031884205D0FE
:1028C0000B48808841F66311884203D12920FFF725
:1028D00015FE14E00648808845F21051884209D15F
:1028E0004FF42450FFF70AFE09E000007E00006C60
:1028F00018E7012040F273110720FFF71AFE00BD10
:1029000000B5FD48808849F24131884211D0FA482B
:10291000808846F6040188420BD0F748808845F24B
:102920001031884205D0F448808841F6631188420E
:1029300003D12820FFF7E2FD0EE0EF48808845F242
:102940001051884204D14FF42050FFF7D7FD03E027
:1029500000210720FFF7EDFD00BDF0B5054600247E
:102960000027E548807901280BD1E348808846F6A6
:102970000401884205D0E048808841F6631188420E
:1029800008D1DD488079F0B9DB48808841F66311D1
:10299000884218D1082D15D2DFE805F00406080A90
:1029A0000C0E101206250DE007250BE0042509E0AA
:1029B000052507E0012505E0002503E0032501E0EA
:1029C000022500BF00BFCC48808849F241318842CF
:1029D00017D0C948808846F60401884211D0C648FD
:1029E000808845F2103188420BD0C348808845F278
:1029F0001051884205D0C048808841F66311884252
:102A00007ED1082D1CD2DFE805F00406090C0F1258
:102A1000151800BF14E044F0800411E044F04004B5
:102A20000EE044F0C0040BE044F0200408E044F061
:102A3000600405E044F0A00402E044F0E00400BFBC
:102A400000BFAD48808845F21051884202D14FF452
:102A5000585700E03627A848808845F21031884250
:102A60000DD0A548808845F21051884207D0A24871
:102A7000808841F66311884201D044F008049E48E2
:102A8000808846F60401884201D144F002042146C0
:102A90003846FFF74EFD9848808841F6631188421A
:102AA0001DD004F0200068B19348008892494988FD
:102AB000884214DA9048068840888F490880084682
:102AC00046800CE08C4800888B494988884206DDA6
:102AD0008948068840888849088008464680864894
:102AE000808845F21051884254D183494889FFF7C4
:102AF00005FD0020FFF70BFD7F494989491C00E0D7
:102B000077E088B2FFF7FAFC0020FFF700FD7A4972
:102B10004989891C88B2FFF7F1FC77490988491E69
:102B2000C1F30F20FFF7F3FC73494989C91C88B230
:102B3000FFF7E4FC70490978491EC8B2FFF7E7FCCB
:102B40006D498889FFF7DAFC0020FFF7E0FC6A494D
:102B50008989491C88B2FFF7D1FC0020FFF7D7FC18
:102B600065498989891C88B2FFF7C8FC6249498890
:102B7000491EC1F30F20FFF7CAFC5F498989C91CB0
:102B800088B2FFF7BBFC5C498978491EC8B2FFF7E1
:102B9000BEFC55E058494889FFF7B0FC0020FFF71C
:102BA000B6FC0020FFF7B3FC53490988491EC1F366
:102BB0000F20FFF7ACFC50490978491EC8B2FFF757
:102BC000A6FC4D498889FFF799FC0020FFF79FFC80
:102BD0000020FFF79CFC48494988491EC1F30F209B
:102BE000FFF795FC44498978491EC8B2FFF78FFC6E
:102BF00026E0082D1CD2DFE805F004070A0D0F12AD
:102C0000151844F0300413E044F0100410E044F0D0
:102C100020040DE000BF0BE044F0380408E044F06D
:102C2000280405E044F0180402E044F0080400BF62
:102C300000BF032744F4805421463846FFF779FC4F
:102C4000F0BD30B504460D4629462046FFF7A0FCEE
:102C5000FFF781FC294800882949088030BD70B5FC
:102C600004460D4616462448808849F24131884280
:102C700005D02148808845F21031884214D11E4980
:102C80004889FFF73BFC2012FFF741FCE0B2FFF759
:102C90003EFC19498889FFF731FC2812FFF737FC01
:102CA000E8B2FFF734FC93E01348808845F21051F6
:102CB000884227D110494889FFF720FC2012FFF7EE
:102CC00026FC0D494989491C88B2FFF717FCE0B280
:102CD000FFF71DFC08498889FFF710FC2812FFF751
:102CE00016FC05498989491C88B2FFF707FCE8B240
:102CF000FFF70DFC6CE0000018E701203600002013
:102D00008000006CFE48808841F66311884228D11B
:102D1000FB48807920B9FA480088401E001B84B225
:102D2000F7494889FFF7EAFB2012FFF7F0FBE0B212
:102D3000FFF7EDFB2012FFF7EAFBE0B2FFF7E7FB3E
:102D4000EF498889FFF7DAFB2812FFF7E0FBE8B2CA
:102D5000FFF7DDFB2812FFF7DAFBE8B2FFF7D7FB3E
:102D600036E0E748808846F6040188421DD1E448F1
:102D70008079012804D1E2480088401E001B84B2FB
:102D8000DF494889FFF7BAFB2012FFF7C0FBE0B22A
:102D9000FFF7BDFBDA498889FFF7B0FB2812FFF780
:102DA000B6FBE8B2FFF7B3FB12E0D5488079012803
:102DB00004D1D3480088401E001B84B2D049488902
:102DC0002146FFF7B6FBCE4988892946FFF7B1FBBC
:102DD000CB480089CB4908804FF0D840A0F88060EC
:102DE00070BD70B52DED048B0446BE20FFF786FB49
:102DF0000520FFF78CFB204608F0DDFB41EC190BAA
:102E00009FEDC10B53EC102B08F024FC41EC180B88
:102E100008F0A4FB85B22846FFF779FB0120FFF7F5
:102E200076FBFF20FFF773FB0020FFF770FB00200D
:102E3000FFF76DFBBDEC048B70BD10B50446002C94
:102E400066D1AF498871F02008804FF4A0704880A7
:102E50000846808849F2413188420BD0A8488088D2
:102E600046F60401884205D0A548808845F2103115
:102E700088421AD12C20A24908812A2048812B207F
:102E800088810846808846F60401884205D09C481F
:102E9000808845F21031884206D14FF4A0709849DD
:102EA00008804FF4F0704880A1E09548808845F292
:102EB0001051884210D14FF43050914908814FF49D
:102EC000285048814FF42C5088814FF4F0700880CE
:102ED0004FF4487048808AE08948808841F6631141
:102EE00088420DD12C20864908812B2048812A2038
:102EF00088814FF4F07008804FF44870488076E085
:102F000022207F49088120204881212088816EE08D
:102F100001207B4988714FF4A0700880F020488020
:102F20000846808849F24131884205D0744880883B
:102F300045F21031884207D12C20714908812A209E
:102F400048812B2088813FE06D48808846F6040147
:102F5000884207D12C206A4908812B2048812A20E9
:102F6000888131E06648808845F21051884210D14E
:102F70004FF43050624908814FF4285048814FF493
:102F80002C5088814FF4487008804FF4F0704880CE
:102F90001AE05B48808841F6631188420DD12C20ED
:102FA000574908812A2048812B2088814FF4487096
:102FB00008804FF4F070488006E0222050490881D4
:102FC00021204881202088814D48808846F60401D0
:102FD000884205D04A48808845F21031884206D19F
:102FE0004FF4F070464908804FF4A07048800020EC
:102FF000FFF7B3FC10BD2DE9F04F86B004460D4637
:103000009046994604EB0800401E86B205EB090085
:10301000401E87B23A48808849F24131884215D033
:103020003748808845F2103188420FD03448808874
:1030300046F60401884209D031488079012826D11A
:103040002F48808841F66311884220D12C49488955
:10305000FFF754FA2012FFF75AFAE0B2FFF757FAD7
:103060003012FFF754FAF0B2FFF751FA2449888979
:10307000FFF744FA2812FFF74AFAE8B2FFF747FAD7
:103080003812FFF744FAF8B2FFF741FAC1E01C48E2
:10309000808841F6631188423DD119480088A0EB31
:1030A0000800001B84B205EB0900401E1FFA80F9DE
:1030B00013494889FFF722FA2012FFF728FAE0B2F5
:1030C000FFF725FA04EB0801491EC1F30F20FFF7B3
:1030D0001EFA04EB0801491EC8B2FFF718FA0849A6
:1030E0008889FFF70BFA2812FFF711FAE8B2FFF709
:1030F0000EFA4FEA2920FFF70AFA09F0FF0007E06D
:1031000018E701207E00006C66666666666604400D
:10311000FFF7FDF97DE0FE48808845F210518842B6
:1031200044D1FB494889FFF7E9F92012FFF7EFF98D
:10313000F7494989491C88B2FFF7E0F9E0B2FFF787
:10314000E6F9F3494989891C88B2FFF7D7F93012AB
:10315000FFF7DDF9EE494989C91C88B2FFF7CEF9BE
:10316000F0B2FFF7D4F9EA498889FFF7C7F92812C6
:10317000FFF7CDF9E6498989491C88B2FFF7BEF906
:10318000E8B2FFF7C4F9E2498989891C88B2FFF7E0
:10319000B5F93812FFF7BBF9DD498989C91C88B236
:1031A000FFF7ACF9F8B2FFF7B2F932E0D84880790E
:1031B00001280ED1AA46BB46D5480088801B401E78
:1031C00080B20190D2480088001B401E80B200905F
:1031D00003E0A246B3460195009750200590512088
:1031E0000490522003905320029051460598FFF717
:1031F000A0F959460498FFF79CF901990398FFF745
:1032000098F900990298FFF794F929462046FFF7AC
:10321000BFF906B0BDE8F08F70B504460026BC4883
:10322000058840884543BA48808846F604018842AC
:1032300016D1B7488079012812D10020B44988718D
:103240002A2048812B20888100210846FFF7A0F919
:103250000120AF4988712B2048812A20888103E012
:1032600000210846FFF794F9FFF775F9002602E000
:10327000A8480480761CAE42FAD370BD1CB5A6489F
:10328000006840F07800A44908600846006840F0F3
:1032900002000860A0480830006840F001009E4924
:1032A000083108600120022100230246CDE9001008
:1032B000C1039A4804F0FCFD0120032100230222EF
:1032C000CDE900104CF23371954804F0F1FD012076
:1032D000032100230222CDE900104FF680719148AE
:1032E00004F0E6FD0120032100230222CDE90010B5
:1032F00001038D4804F0DCFD01200321002302229C
:10330000CDE900100103894804F0D2FD0C22002110
:10331000834804F0ADFD0C220121814804F0A8FD92
:103320000C2204217E4804F0A3FD0C2205217C48D8
:1033300004F09EFD0C220821794804F099FD0C222E
:103340000921774804F094FD0C220A21744804F006
:103350008FFD0C220E21724804F08AFD0C220F21F1
:103360006F4804F085FD0C2207216E4804F080FDB3
:103370000C2208216B4804F07BFD0C2209216948CE
:1033800004F076FD0C220A21664804F071FD0C223F
:103390000B21644804F06CFD0C221146614804F0D6
:1033A00067FD0C220D215F4804F062FD0C220E2106
:1033B0005C4804F05DFD0C220F215A4804F058FDD2
:1033C0000C221146584804F053FD0C221146574870
:1033D00004F04EFD00204FF020418861C86154493F
:1033E00008604FF02040806940F480504FF0204149
:1033F00088610846806940F4804088610846806999
:1034000040F0100088610846C069C8610846C0697C
:1034100040F00F00C8610846C06940F47050C861B0
:1034200043480068C1F81C010846D0F81C0140F070
:103430000900C1F81C010846D0F81C0140F40060E6
:10344000C1F81C010846806940F001008861322003
:1034500004F048FC01210020FFF76BF8322004F053
:1034600041FC0020FFF76CF82949888008468088D5
:10347000FF280ADB084680884FF6FF71884204D097
:1034800023488088B0F5134F7ED1D320FFF736F85C
:10349000FFF747F81E498880FFF743F81C498880EA
:1034A000FFF73FF81A498880084680884FF6FF7179
:1034B00001EA002016498880FFF733F8144989880B
:1034C0000843134988800846808849F24131884280
:1034D0005AD0BF20FFF712F8FFF723F80C49888075
:1034E000FFF71FF80A498880FFF71BF80849888012
:1034F000FFF717F806498880084680884FF6FF7165
:1035000001EA002002498880FFF70BF8004911E02A
:1035100018E701208000006C3038024000040240AF
:10352000000C02400010024000140240001802404B
:103530001C0100A089880843FE49888008468088CD
:1035400046F6040188427AD0D420FEF7D7FFFEF772
:10355000E8FFF8498880FEF7E4FFF6498880FEF727
:10356000E0FFF4498880084680884FF6FF7101EA41
:103570000020F0498880FEF7D4FFEE49898808438F
:10358000EC498880084600E059E0808845F2103117
:10359000884254D04FF45A40FEF7B0FFFEF7C1FF07
:1035A000E44988804FF45B40FEF7A8FFFEF7B9FFBF
:1035B000E0498880084680884FF6FF7101EA0020C4
:1035C000DC4988804FF45C40FEF798FFFEF7A9FFC6
:1035D000D84989880843D749888008468088B0F54B
:1035E000004F02D145F210508880D248808845F2C1
:1035F0001051884223D0A120FEF780FFFEF791FFF3
:10360000CC498880FEF78DFFCA49888008468088AB
:103610004FF6FF7101EA0020C6498880FEF781FF5E
:10362000C44989880843C34988800846808845F290
:103630006171884203D141F66310BE498880BD485C
:10364000808849F24131884211D0BA48808845F2D9
:10365000103188420BD0B748808845F2105188421B
:1036600005D0B448808841F6631188421DD1B24824
:10367000006820F00F004FF02041C1F81C010846FF
:10368000D0F81C0120F47060C1F81C010846D0F885
:103690001C0140F00300C1F81C010846D0F81C01D1
:1036A00040F40070C1F81C0128E0A248808846F66A
:1036B0000401884205D09F4880884CF20551884219
:1036C0001CD19D48006820F00F004FF02041C1F848
:1036D0001C010846D0F81C0120F47060C1F81C01E0
:1036E0000846D0F81C0140F00A00C1F81C01084649
:1036F000D0F81C0140F44060C1F81C018D4881885D
:103700008EA007F013FC8B48808849F24131884233
:103710007ED1CF20FEF7F2FE0020FEF7F8FEC1209A
:10372000FEF7F5FE3020FEF7F2FEED20FEF7E6FE96
:103730006420FEF7ECFE0320FEF7E9FE1220FEF700
:10374000E6FE8120FEF7E3FEE820FEF7D7FE8520A7
:10375000FEF7DDFE1020FEF7DAFE7A20FEF7D7FE38
:10376000CB20FEF7CBFE3920FEF7D1FE2C20FEF752
:10377000CEFE0020FEF7CBFE3420FEF7C8FE02206E
:10378000FEF7C5FEF720FEF7B9FE2020FEF7BFFECC
:10379000EA20FEF7B3FE0020FEF7B9FE0020FEF798
:1037A000B6FEC020FEF7AAFE1B20FEF7B0FEC12029
:1037B000FEF7A4FE0120FEF7AAFEC520FEF79EFE3E
:1037C0003020FEF7A4FE3020FEF7A1FEC720FEF752
:1037D00095FEB720FEF79BFE3620FEF78FFE4820B1
:1037E000FEF795FE3A20FEF789FE5520FEF78FFE84
:1037F000B120FEF783FE0020FEF789FE1A20FEF7B7
:1038000086FEB620FEF77AFE0A20FEF780FE00E074
:10381000A4E0A220FEF77BFEF220FEF76FFE002060
:10382000FEF775FE2620FEF769FE0120FEF76FFE0B
:10383000E020FEF763FE0F20FEF769FE2A20FEF768
:1038400066FE2820FEF763FE0820FEF760FE0E20CD
:10385000FEF75DFE0820FEF75AFE5420FEF757FEE5
:10386000A920FEF754FE4320FEF751FE0A20FEF782
:103870004EFE0F20FEF74BFE0020FEF748FE002014
:10388000FEF745FE0020FEF742FE0020FEF73FFE59
:10389000E120FEF733FE0020FEF739FE1520FEF78B
:1038A00036FE1720FEF733FE0720FEF730FE11200C
:1038B000FEF72DFE0620FEF72AFE2B20FEF727FE40
:1038C0005620FEF724FE3C20FEF721FE0520FEF7E1
:1038D0001EFE1020FEF71BFE0F20FEF718FE3F20F5
:1038E000FEF715FE3F20FEF712FE0F20FEF70FFE3B
:1038F0002B20FEF703FE0020FEF709FE0020FEF756
:1039000006FE0120FEF703FE3F20FEF700FE2A2000
:10391000FEF7F4FD0020FEF7FAFD0020FEF7F7FDAC
:103920000020FEF7F4FDEF20FEF7F1FD1120FEF779
:10393000E5FD0BE018E701201C0100A0204C4344EA
:103940002049443A25780D0A00000000782004F050
:10395000C9F92920FEF7D2FD03F01DB9FE48808881
:1039600046F6040188427CD11120FEF7C7FD1420E1
:1039700004F0B8F9D020FEF7C1FD0720FEF7C7FD1F
:103980004220FEF7C4FD1D20FEF7C1FDD120FEF749
:10399000B5FD0020FEF7BBFD1A20FEF7B8FD09209B
:1039A000FEF7B5FDD220FEF7A9FD0120FEF7AFFD21
:1039B0002220FEF7ACFDC020FEF7A0FD1020FEF790
:1039C000A6FD3B20FEF7A3FD0020FEF7A0FD022090
:1039D000FEF79DFD1120FEF79AFDC520FEF78EFD36
:1039E0000320FEF794FDC820FEF788FD0020FEF7B7
:1039F0008EFD2520FEF78BFD2120FEF788FD05209A
:103A0000FEF785FD0020FEF782FD0A20FEF77FFD10
:103A10006520FEF77CFD2520FEF779FD7720FEF777
:103A200076FD5020FEF773FD0F20FEF770FD00209D
:103A3000FEF76DFDF820FEF761FD0120FEF767FD42
:103A4000FE20FEF75BFD0020FEF761FD0220FEF781
:103A50005EFD2020FEF752FD3620FEF74FFD0820C8
:103A600000E02CE0FEF753FD3A20FEF747FD55201D
:103A7000FEF74DFD2B20FEF741FD0020FEF747FD30
:103A80000020FEF744FD0120FEF741FD3F20FEF738
:103A90003EFD2A20FEF732FD0020FEF738FD002013
:103AA000FEF735FD0120FEF732FDDF20FEF72FFD8A
:103AB000782004F017F92920FEF720FD4CE7A648EE
:103AC000808845F21031884240F07C87ED20FEF777
:103AD00015FD0120FEF71BFDFE20FEF718FDEE2070
:103AE000FEF70CFDDE20FEF712FD2120FEF70FFD94
:103AF000F120FEF703FD0120FEF709FDDF20FEF7B0
:103B0000FDFC1020FEF703FDC420FEF7F7FC8F201C
:103B1000FEF7FDFCC620FEF7F1FC0020FEF7F7FCE7
:103B2000E220FEF7F4FCE220FEF7F1FCE220FEF7D3
:103B3000EEFCBF20FEF7E2FCAA20FEF7E8FCB02076
:103B4000FEF7DCFC0D20FEF7E2FC0020FEF7DFFCB8
:103B50000D20FEF7DCFC0020FEF7D9FC1120FEF75B
:103B6000D6FC0020FEF7D3FC1920FEF7D0FC002085
:103B7000FEF7CDFC2120FEF7CAFC0020FEF7C7FCB3
:103B80002D20FEF7C4FC0020FEF7C1FC3D20FEF70F
:103B9000BEFC0020FEF7BBFC5D20FEF7B8FC002059
:103BA000FEF7B5FC5D20FEF7B2FC0020FEF7AFFC8F
:103BB000B120FEF7A3FC8020FEF7A9FC0020FEF751
:103BC000A6FC8B20FEF7A3FC0020FEF7A0FC9620AD
:103BD000FEF79DFC0020FEF79AFCB220FEF78EFC5B
:103BE0000020FEF794FC0020FEF791FC0220FEF777
:103BF0008EFC0020FEF78BFC0320FEF788FC0020E3
:103C0000FEF785FCB320FEF779FC0020FEF77FFC71
:103C10000020FEF77CFC0020FEF779FC0020FEF778
:103C200076FC0020FEF773FC0020FEF770FC0020FD
:103C3000FEF76DFC0020FEF76AFC0020FEF767FC33
:103C40000020FEF764FC0020FEF761FC0020FEF778
:103C50005EFC0020FEF75BFC0020FEF758FC002015
:103C6000FEF755FC0020FEF752FC0020FEF74FFC4B
:103C70000020FEF74CFC0020FEF749FC0020FEF778
:103C800046FC0020FEF743FC0020FEF740FC00202D
:103C9000FEF73DFC0020FEF73AFCB420FEF72EFCB8
:103CA0008B20FEF734FC0020FEF731FC9620FEF757
:103CB0002EFC0020FEF72BFCA120FEF728FC0020A4
:103CC000FEF725FCB520FEF719FC0220FEF71FFCCD
:103CD0000020FEF71CFC0320FEF719FC0020FEF775
:103CE00016FC0420FEF713FC0020FEF710FCB620A3
:103CF000FEF704FC0020FEF70AFC0020FEF707FC9C
:103D0000B720FEF7FBFB0020FEF701FC0020FEF7CA
:103D1000FEFB3F20FEF7FBFB0020FEF7F8FB5E20DA
:103D2000FEF7F5FB0020FEF7F2FB6420FEF7EFFB49
:103D30000020FEF7ECFB8C20FEF7E9FB0020FEF7ED
:103D4000E6FBAC20FEF7E3FB0020FEF7E0FBDC2007
:103D5000FEF7DDFB002001E018E70120FEF7D7FBAE
:103D60007020FEF7D4FB0020FEF7D1FB9020FEF779
:103D7000CEFB0020FEF7CBFBEB20FEF7C8FB0020BC
:103D8000FEF7C5FBDC20FEF7C2FB0020FEF7BFFB01
:103D9000B820FEF7B3FB0020FEF7B9FB0020FEF7CA
:103DA000B6FB0020FEF7B3FB0020FEF7B0FB0020BF
:103DB000FEF7ADFB0020FEF7AAFB0020FEF7A7FBF5
:103DC0000020FEF7A4FBBA20FEF798FB2420FEF7A4
:103DD0009EFB0020FEF79BFB0020FEF798FB0020D7
:103DE000FEF795FBC120FEF789FB2020FEF78FFB35
:103DF0000020FEF78CFB5420FEF789FB0020FEF725
:103E000086FBFF20FEF783FB0020FEF780FBC2202D
:103E1000FEF774FB0A20FEF77AFB0020FEF777FB23
:103E20000420FEF774FB0020FEF771FBC320FEF7B1
:103E300065FB3C20FEF76BFB0020FEF768FB3A2099
:103E4000FEF765FB0020FEF762FB3920FEF75FFB03
:103E50000020FEF75CFB3720FEF759FB0020FEF741
:103E600056FB3C20FEF753FB0020FEF750FB3620AC
:103E7000FEF74DFB0020FEF74AFB3220FEF747FB22
:103E80000020FEF744FB2F20FEF741FB0020FEF749
:103E90003EFB2C20FEF73BFB0020FEF738FB2920E1
:103EA000FEF735FB0020FEF732FB2620FEF72FFB46
:103EB0000020FEF72CFB2420FEF729FB0020FEF754
:103EC00026FB2420FEF723FB0020FEF720FB232007
:103ED000FEF71DFB0020FEF71AFB3C20FEF717FB48
:103EE0000020FEF714FB3620FEF711FB0020FEF742
:103EF0000EFB3220FEF70BFB0020FEF708FB2F2005
:103F0000FEF705FB0020FEF702FB2C20FEF7FFFA70
:103F10000020FEF7FCFA2920FEF7F9FA0020FEF750
:103F2000F6FA2620FEF7F3FA0020FEF7F0FA242036
:103F3000FEF7EDFA0020FEF7EAFA2420FEF7E7FA92
:103F40000020FEF7E4FA2320FEF7E1FA0020FEF756
:103F5000DEFAC420FEF7D2FA6220FEF7D8FA00207B
:103F6000FEF7D5FA0520FEF7D2FA0020FEF7CFFAC9
:103F70008420FEF7CCFA0020FEF7C9FAF020FEF705
:103F8000C6FA0020FEF7C3FA1820FEF7C0FA002098
:103F9000FEF7BDFAA420FEF7BAFA0020FEF7B7FA42
:103FA0001820FEF7B4FA0020FEF7B1FA5020FEF711
:103FB000AEFA0020FEF7ABFA0C20FEF7A8FA0020BC
:103FC000FEF7A5FA1720FEF7A2FA0020FEF79FFAE7
:103FD0009520FEF79CFA0020FEF799FAF320FEF7F1
:103FE00096FA0020FEF793FAE620FEF790FA0020FA
:103FF000FEF78DFAC520FEF781FA3220FEF787FA28
:104000000020FEF784FA4420FEF781FA0020FEF734
:104010007EFA6520FEF77BFA0020FEF778FA76201C
:10402000FEF775FA0020FEF772FA8820FEF76FFAA5
:104030000020FEF76CFAC620FEF760FA2020FEF79B
:1040400066FA0020FEF763FA1720FEF760FA0020F8
:10405000FEF75DFA0120FEF75AFA0020FEF757FA44
:10406000C720FEF74BFA0020FEF751FA0020FEF7BA
:104070004EFA0020FEF74BFA0020FEF748FAC8205F
:10408000FEF73CFA0020FEF742FA0020FEF73FFA66
:104090000020FEF73CFA0020FEF739FAC920FEF7AF
:1040A0002DFA0020FEF733FA0020FEF730FA002048
:1040B000FEF72DFA0020FEF72AFA0020FEF727FA75
:1040C0000020FEF724FA0020FEF721FA0020FEF778
:1040D0001EFA0020FEF71BFA0020FEF718FA002057
:1040E000FEF715FA0020FEF712FA0020FEF70FFA8D
:1040F0000020FEF70CFA0020FEF709FA0020FEF778
:1041000006FAE020FEF7FAF91620FEF700FA002082
:10411000FEF7FDF91C20FEF7FAF90020FEF7F7F98B
:104120002120FEF7F4F90020FEF7F1F93620FEF722
:10413000EEF90020FEF7EBF94620FEF7E8F9002043
:10414000FEF7E5F95220FEF7E2F90020FEF7DFF96D
:104150006420FEF7DCF90020FEF7D9F97A20FEF79B
:10416000D6F90020FEF7D3F98B20FEF7D0F9002016
:10417000FEF7CDF99920FEF7CAF90020FEF7C7F93E
:10418000A820FEF7C4F90020FEF7C1F9B920FEF718
:10419000BEF90020FEF7BBF9C420FEF7B8F90020F5
:1041A000FEF7B5F9CA20FEF7B2F90020FEF7AFF925
:1041B000D220FEF7ACF90020FEF7A9F9D920FEF7CE
:1041C000A6F90020FEF7A3F9E020FEF7A0F90020F1
:1041D000FEF79DF9F320FEF79AF90020FEF797F914
:1041E000E120FEF78BF91620FEF791F90020FEF78B
:1041F0008EF91C20FEF78BF90020FEF788F92220AB
:10420000FEF785F90020FEF782F93620FEF77FF9E8
:104210000020FEF77CF94520FEF779F90020FEF733
:1042200076F95220FEF773F90020FEF770F964204A
:10423000FEF76DF90020FEF76AF97A20FEF767F9BC
:104240000020FEF764F98B20FEF761F90020FEF7ED
:104250005EF99920FEF75BF90020FEF758F9A820D7
:10426000FEF755F90020FEF752F9B920FEF74FF995
:104270000020FEF74CF9C420FEF749F90020FEF7B4
:1042800046F9CA20FEF743F90020FEF740F9D22094
:10429000FEF73DF90020FEF73AF9D820FEF737F98E
:1042A0000020FEF734F9E020FEF731F90020FEF798
:1042B0002EF9F320FEF72BF90020FEF728F9E22073
:1042C000FEF71CF90520FEF722F90020FEF71FF982
:1042D0000B20FEF71CF90020FEF719F91B20FEF752
:1042E00016F90020FEF713F93420FEF710F900202C
:1042F000FEF70DF94420FEF70AF90020FEF707F952
:104300004F20FEF704F90020FEF701F96120FEF7C7
:10431000FEF80020FEF7FBF87920FEF7F8F8002001
:10432000FEF7F5F88820FEF7F2F80020FEF7EFF828
:104330009720FEF7ECF80020FEF7E9F8A620FEF73C
:10434000E6F80020FEF7E3F8B720FEF7E0F80020DB
:10435000FEF7DDF8C220FEF7DAF80020FEF7D7F806
:10436000C720FEF7D4F80020FEF7D1F8D120FEF7E1
:10437000CEF80020FEF7CBF8D620FEF7C8F80020D4
:10438000FEF7C5F8DD20FEF7C2F80020FEF7BFF803
:10439000F320FEF7BCF80020FEF7B9F8E320FEF7A3
:1043A000ADF80520FEF7B3F80020FEF7B0F80A20BC
:1043B000FEF7ADF80020FEF7AAF81C20FEF7A7F8DC
:1043C0000020FEF7A4F83320FEF7A1F80020FEF746
:1043D0009EF84420FEF79BF80020FEF798F8502046
:1043E000FEF795F80020FEF792F86220FEF78FF8AE
:1043F0000020FEF78CF87820FEF789F80020FEF701
:1044000086F88820FEF783F80020FEF780F89720D2
:10441000FEF77DF80020FEF77AF8A620FEF777F881
:104420000020FEF774F8B720FEF771F80020FEF7C1
:104430006EF8C220FEF76BF80020FEF768F8C72080
:10444000FEF765F80020FEF762F8D120FEF75FF86E
:104450000020FEF75CF8D520FEF759F80020FEF7A3
:1044600056F8DD20FEF753F80020FEF750F8F32051
:10447000FEF74DF80020FEF74AF8E420FEF73EF87C
:104480000120FEF744F80020FEF741F80120FEF776
:104490003EF80020FEF73BF80220FEF738F8002037
:1044A000FEF735F82A20FEF732F80020FEF72FF845
:1044B0003C20FEF72CF80020FEF729F84B20FEF7F1
:1044C00026F80020FEF723F85D20FEF720F80020F4
:1044D000FEF71DF87420FEF71AF80020FEF717F813
:1044E0008420FEF714F80020FEF711F89320FEF761
:1044F0000EF80020FEF70BF8A220FEF708F80020C7
:10450000FEF705F8B320FEF702F80020FDF7FFFFE5
:10451000BE20FDF7FCFF0020FDF7F9FFC420FDF7EA
:10452000F6FF0020FDF7F3FFCD20FDF7F0FF0020A0
:10453000FDF7EDFFD320FDF7EAFF0020FDF7E7FFD1
:10454000DD20FDF7E4FF0020FDF7E1FFF320FDF79C
:10455000DEFF0020FDF7DBFFE520FDF7CFFF0020A9
:10456000FDF7D5FF0020FDF7D2FF0020FDF7CFFFBC
:104570000020FDF7CCFF0220FDF7C9FF0020FDF76A
:10458000C6FF2920FDF7C3FF0020FDF7C0FF3C2038
:10459000FDF7BDFF0020FDF7BAFF4B20FDF7B7FF89
:1045A0000020FDF7B4FF5D20FDF7B1FF0020FDF70F
:1045B000AEFF7420FDF7ABFF0020FDF7A8FF8420BD
:1045C000FDF7A5FF0020FDF7A2FF9320FDF79FFF59
:1045D0000020FDF79CFFA220FDF799FF0020FDF7CA
:1045E00096FFB320FDF793FF0020FDF790FFBE205C
:1045F000FDF78DFF0020FDF78AFFC420FDF787FF40
:104600000020FDF784FFCD20FDF781FF0020FDF79E
:104610007EFFD320FDF77BFF0020FDF778FFDC2035
:10462000FDF775FF0020FDF772FFF320FDF76FFF28
:104630000020FDF76CFFE620FDF760FF1120FDF77D
:1046400066FF0020FDF763FF3420FDF760FF0020C8
:10465000FDF75DFF5620FDF75AFF0020FDF757FFDD
:104660007620FDF754FF0020FDF751FF7720FDF77E
:104670004EFF0020FDF74BFF6620FDF748FF0020AE
:10468000FDF745FF8820FDF742FF0020FDF73FFFC3
:104690009920FDF73CFF0020FDF739FFBB20FDF717
:1046A00036FF0020FDF733FF9920FDF730FF002093
:1046B000FDF72DFF6620FDF72AFF0020FDF727FFFD
:1046C0005520FDF724FF0020FDF721FF5520FDF7C1
:1046D0001EFF0020FDF71BFF4520FDF718FF0020FF
:1046E000FDF715FF4320FDF712FF0020FDF70FFF38
:1046F0004420FDF70CFF0020FDF709FFE720FDF740
:10470000FDFE3220FDF703FF0020FDF700FF5520DE
:10471000FDF7FDFE0020FDF7FAFE7620FDF7F7FE1F
:104720000020FDF7F4FE6620FDF7F1FE0020FDF706
:10473000EEFE6720FDF7EBFE0020FDF7E8FE6720A8
:10474000FDF7E5FE0020FDF7E2FE8720FDF7DFFE26
:104750000020FDF7DCFE9920FDF7D9FE0020FDF7D3
:10476000D6FEBB20FDF7D3FE0020FDF7D0FE99203A
:10477000FDF7CDFE0020FDF7CAFE7720FDF7C7FE4E
:104780000020FDF7C4FE4420FDF7C1FE0020FDF728
:10479000BEFE5620FDF7BBFE0020FDF7B8FE23202D
:1047A000FDF7B5FE0020FDF7B2FE3320FDF7AFFEAA
:1047B0000020FDF7ACFE4520FDF7A9FE0020FDF727
:1047C000A6FEE820FDF79AFE0020FDF7A0FE0020DF
:1047D000FDF79DFE9920FDF79AFE0020FDF797FE5C
:1047E0008720FDF794FE0020FDF791FE8820FDF75D
:1047F0008EFE0020FDF78BFE7720FDF788FE00205F
:10480000FDF785FE6620FDF782FE0020FDF77FFEA6
:104810008820FDF77CFE0020FDF779FEAA20FDF739
:1048200076FE0020FDF773FEBB20FDF770FE002032
:10483000FDF76DFE9920FDF76AFE0020FDF767FE8B
:104840006620FDF764FE0020FDF761FE5520FDF7B0
:104850005EFE0020FDF75BFE5520FDF758FE0020B0
:10486000FDF755FE4420FDF752FE0020FDF74FFEF8
:104870004420FDF74CFE0020FDF749FE5520FDF7D2
:1048800046FE0020FDF743FEE920FDF737FEAA2093
:10489000FDF73DFE0020FDF73AFE0020FDF737FE54
:1048A0000020FDF734FE0020FDF728FEAA20FDF7CA
:1048B0002EFECF20FDF722FE0020FDF728FE00206F
:1048C000FDF725FE0020FDF722FE0020FDF71FFE6C
:1048D0000020FDF71CFE0020FDF719FE0020FDF76B
:1048E00016FE0020FDF713FE0020FDF710FE00204D
:1048F000FDF70DFE0020FDF70AFE0020FDF707FE84
:104900000020FDF704FE0020FDF701FE0020FDF76A
:10491000FEFD0020FDF7FBFD0020FDF7F8FDF02077
:10492000FDF7ECFD0020FDF7F2FD5020FDF7EFFD57
:104930000020FDF7ECFD0020FDF7E9FD0020FDF76C
:10494000E6FDF320FDF7DAFD0020FDF7E0FDF9209C
:10495000FDF7D4FD0620FDF7DAFD1020FDF7D7FDA9
:104960002920FDF7D4FD0020FDF7D1FD3A20FDF709
:10497000C5FD5520FDF7CBFD1120FDF7BFFD6420DF
:1049800003F0B0F92920FDF7B9FD3520FDF7B6FD9C
:104990000020FDF7BCFD5120FDF7B0FDFF20FDF725
:1049A000B6FD5320FDF7AAFD2C20FDF7B0FD5520E4
:1049B000FDF7A4FD8220FDF7AAFD2C20FDF79EFD4A
:1049C00002F0E9B8FE48808845F2105188427DD156
:1049D00055214FF47040FDF7ACFDAA214FF20100C4
:1049E000FDF7A7FD52214FF20200FDF7A2FD0821BD
:1049F0004FF20300FDF79DFD01214FF20400FDF78A
:104A000098FD0D214FF43040FDF793FD0D214BF241
:104A10000100FDF78EFD0D214BF20200FDF789FD2F
:104A200034214FF43640FDF784FD34214BF2016010
:104A3000FDF77FFD34214BF20260FDF77AFD0D2179
:104A40004FF43140FDF775FD0D214BF20110FDF7DC
:104A500070FD0D214BF20210FDF76BFD34214FF478
:104A60003740FDF766FD34214BF20170FDF761FD23
:104A700034214BF20270FDF75CFD00214FF432400F
:104A8000FDF757FD00214BF20120FDF752FD0021FB
:104A90004BF20220FDF74DFD24214FF43840FDF785
:104AA00048FD24214BF60100FDF743FD24214BF680
:104AB0000200FDF73EFD01214FF43F40FDF739FDB7
:104AC0000F214FF43340FDF734FD00E0FDE30F21EB
:104AD0004BF20130FDF72DFD0F214BF20230FDF7B7
:104AE00028FD34214FF43940FDF723FD34214BF6E6
:104AF0000110FDF71EFD34214BF60210FDF719FDE4
:104B000008214FF43540FDF714FD08214BF2015008
:104B1000FDF70FFD08214BF20250FDF70AFD0321BE
:104B20004FF44240FDF705FD24214FF43A40FDF7D4
:104B300000FD24214BF60120FDF7FBFC24214BF660
:104B40000220FDF7F6FC00214FF43C40FDF7F1FC9C
:104B500078214BF60140FDF7ECFC00214BF60240BA
:104B6000FDF7E7FC00214FF43D40FDF7E2FC782122
:104B70004BF60150FDF7DDFC00214BF60250FDF72E
:104B8000D8FC00214FF43E40FDF7D3FC64214BF6E6
:104B90000160FDF7CEFC00214FF45140FDF7C9FC48
:104BA00033214DF20110FDF7C4FC00214DF202103B
:104BB000FDF7BFFC34214DF20310FDF7BAFC0021D4
:104BC0004DF20410FDF7B5FC3A214DF20510FDF74A
:104BD000B0FC00214DF20610FDF7ABFC4A214DF26E
:104BE0000710FDF7A6FC00214DF20810FDF7A1FC0F
:104BF0005C214DF20910FDF79CFC00214DF20A10DA
:104C0000FDF797FC81214DF20B10FDF792FC00217E
:104C10004DF20C10FDF78DFCA6214DF20D10FDF7A5
:104C200088FC00214DF20E10FDF783FCE5214DF2CA
:104C30000F10FDF77EFC01214DF21010FDF779FCFD
:104C400013214DF21110FDF774FC01214DF21210E9
:104C5000FDF76FFC54214DF21310FDF76AFC0121A2
:104C60004DF21410FDF765FC82214DF21510FDF791
:104C700060FC01214DF21610FDF75BFCCA214DF2DC
:104C80001710FDF756FC02214DF21810FDF751FCEC
:104C900000214DF21910FDF74CFC02214DF21A10C3
:104CA000FDF747FC01214DF21B10FDF742FC0221EC
:104CB0004DF21C10FDF73DFC34214DF21D10FDF7A7
:104CC00038FC02214DF21E10FDF733FC67214DF236
:104CD0001F10FDF72EFC02214DF22010FDF729FCDC
:104CE00084214DF22110FDF724FC02214DF2221007
:104CF000FDF71FFCA4214DF22310FDF71AFC022141
:104D00004DF22410FDF715FCB7214DF22510FDF7EB
:104D100010FC02214DF22610FDF70BFCCF214DF2C5
:104D20002710FDF706FC02214DF22810FDF701FCCB
:104D3000DE214DF22910FDF7FCFB02214DF22A1075
:104D4000FDF7F7FBF2214DF22B10FDF7F2FB0221EC
:104D50004DF22C10FDF7EDFBFE214DF22D10FDF76D
:104D6000E8FB03214DF22E10FDF7E3FB10214DF27D
:104D70002F10FDF7DEFB03214DF23010FDF7D9FBBC
:104D800033214DF23110FDF7D4FB03214DF23210E7
:104D9000FDF7CFFB6D214DF23310FDF7CAFB00216B
:104DA0004FF45240FDF7C5FB33214DF20120FDF7D2
:104DB000C0FB00214DF20220FDF7BBFB342101E0D6
:104DC00018E701204DF20320FDF7B3FB00214DF25F
:104DD0000420FDF7AEFB3A214DF20520FDF7A9FBBB
:104DE00000214DF20620FDF7A4FB4A214DF20720D9
:104DF000FDF79FFB00214DF20820FDF79AFB5C2197
:104E00004DF20920FDF795FB00214DF20A20FDF738
:104E100090FB81214DF20B20FDF78BFB00214DF221
:104E20000C20FDF786FBA6214DF20D20FDF781FB3E
:104E300000214DF20E20FDF77CFBE5214DF20F2005
:104E4000FDF777FB01214DF21020FDF772FB1321D6
:104E50004DF21120FDF76DFB01214DF21220FDF7FF
:104E600068FB54214DF21320FDF763FB01214DF245
:104E70001420FDF75EFB82214DF21520FDF759FB52
:104E800001214DF21620FDF754FBCA214DF21720E7
:104E9000FDF74FFB02214DF21820FDF74AFB0021E0
:104EA0004DF21920FDF745FB02214DF21A20FDF7C6
:104EB00040FB01214DF21B20FDF73BFB02214DF28F
:104EC0001C20FDF736FB34214DF21D20FDF731FB90
:104ED00002214DF21E20FDF72CFB67214DF21F2011
:104EE000FDF727FB02214DF22020FDF722FB842154
:104EF0004DF22120FDF71DFB02214DF22220FDF78E
:104F000018FBA4214DF22320FDF713FB02214DF2E3
:104F10002420FDF70EFBB7214DF22520FDF709FBFC
:104F200002214DF22620FDF704FBCF214DF2272070
:104F3000FDF7FFFA02214DF22820FDF7FAFADE21F3
:104F40004DF22920FDF7F5FA02214DF22A20FDF756
:104F5000F0FAF2214DF22B20FDF7EBFA02214DF28F
:104F60002C20FDF7E6FAFE214DF22D20FDF7E1FAA7
:104F700003214DF22E20FDF7DCFA10214DF22F20F7
:104F8000FDF7D7FA03214DF23020FDF7D2FA332195
:104F90004DF23120FDF7CDFA03214DF23220FDF71D
:104FA000C8FA6D214DF23320FDF7C3FA00214FF40A
:104FB0005340FDF7BEFA33214DF20130FDF7B9FA47
:104FC00000214DF20230FDF7B4FA34214DF20330E6
:104FD000FDF7AFFA00214DF20430FDF7AAFA3A21AD
:104FE0004DF20530FDF7A5FA00214DF20630FDF730
:104FF000A0FA4A214DF20730FDF79BFA00214DF24D
:105000000830FDF796FA5C214DF20930FDF791FA70
:1050100000214DF20A30FDF78CFA81214DF20B3060
:10502000FDF787FA00214DF20C30FDF782FAA62138
:105030004DF20D30FDF77DFA00214DF20E30FDF7F7
:1050400078FAE5214DF20F30FDF773FA01214DF2A8
:105050001030FDF76EFA13214DF21130FDF769FAA9
:1050600001214DF21230FDF764FA54214DF2133054
:10507000FDF75FFA01214DF21430FDF75AFA822153
:105080004DF21530FDF755FA01214DF21630FDF7BE
:1050900050FACA214DF21730FDF74BFA02214DF2BA
:1050A0001830FDF746FA00214DF21930FDF741FAAC
:1050B00002214DF21A30FDF73CFA01214DF21B306E
:1050C000FDF737FA02214DF21C30FDF732FA342198
:1050D0004DF21D30FDF72DFA02214DF21E30FDF785
:1050E00028FA67214DF21F30FDF723FA02214DF215
:1050F0002030FDF71EFA84214DF22130FDF719FA18
:1051000002214DF22230FDF714FAA4214DF2233092
:10511000FDF70FFA02214DF22430FDF70AFAB7210C
:105120004DF22530FDF705FA02214DF22630FDF74C
:1051300000FACF214DF22730FDF7FBF902214DF2A5
:105140002830FDF7F6F9DE214DF22930FDF7F1F9AF
:1051500002214DF22A30FDF7ECF9F2214DF22B300D
:10516000FDF7E7F902214DF22C30FDF7E2F9FE21BF
:105170004DF22D30FDF7DDF903214DF22E30FDF714
:10518000D8F910214DF22F30FDF7D3F903214DF25C
:105190003030FDF7CEF933214DF23130FDF7C9F94A
:1051A00003214DF23230FDF7C4F96D214DF2333059
:1051B000FDF7BFF900214FF45440FDF7BAF9332150
:1051C0004DF20140FDF7B5F900214DF20240FDF727
:1051D000B0F934214DF20340FDF7ABF900214DF257
:1051E0000440FDF7A6F93A214DF20540FDF7A1F97B
:1051F00000214DF20640FDF79CF94A214DF207408F
:10520000FDF797F900214DF20840FDF792F95C2176
:105210004DF20940FDF78DF900214DF20A40FDF7EE
:1052200088F981214DF20B40FDF783F900214DF201
:105230000C40FDF77EF9A6214DF20D40FDF779F9FE
:1052400000214DF20E40FDF774F9E5214DF20F40BB
:10525000FDF76FF901214DF21040FDF76AF91321B6
:105260004DF21140FDF765F901214DF21240FDF7B5
:1052700060F954214DF21340FDF75BF901214DF225
:105280001440FDF756F982214DF21540FDF751F912
:1052900001214DF21640FDF74CF9CA214DF217409D
:1052A000FDF747F902214DF21840FDF742F90021C0
:1052B0004DF21940FDF73DF902214DF21A40FDF77C
:1052C00038F901214DF21B4000E006E3FDF731F90A
:1052D00002214DF21C40FDF72CF934214DF21D4006
:1052E000FDF727F902214DF21E40FDF722F9672153
:1052F0004DF21F40FDF71DF902214DF22040FDF750
:1053000018F984214DF22140FDF713F902214DF2E5
:105310002240FDF70EF9A4214DF22340FDF709F9D3
:1053200002214DF22440FDF704F9B7214DF225404A
:10533000FDF7FFF802214DF22640FDF7FAF8CF21E4
:105340004DF22740FDF7F5F802214DF22840FDF718
:10535000F0F8DE214DF22940FDF7EBF802214DF285
:105360002A40FDF7E6F8F2214DF22B40FDF7E1F877
:1053700002214DF22C40FDF7DCF8FE214DF22D40CC
:10538000FDF7D7F803214DF22E40FDF7D2F810219A
:105390004DF22F40FDF7CDF803214DF23040FDF7DF
:1053A000C8F833214DF23140FDF7C3F803214DF227
:1053B0003240FDF7BEF86D214DF23340FDF7B9F8EC
:1053C00000214FF45540FDF7B4F833214DF2015060
:1053D000FDF7AFF800214DF20250FDF7AAF8342195
:1053E0004DF20350FDF7A5F800214DF20450FDF7F2
:1053F000A0F83A214DF20550FDF79BF800214DF23F
:105400000650FDF796F84A214DF20750FDF791F846
:1054100000214DF20850FDF78CF85C214DF2095047
:10542000FDF787F800214DF20A50FDF782F881213F
:105430004DF20B50FDF77DF800214DF20C50FDF7B9
:1054400078F8A6214DF20D50FDF773F800214DF2CA
:105450000E50FDF76EF8E5214DF20F50FDF769F89B
:1054600001214DF21050FDF764F813214DF2115057
:10547000FDF75FF801214DF21250FDF75AF8542163
:105480004DF21350FDF755F801214DF21450FDF780
:1054900050F882214DF21550FDF74BF801214DF2E5
:1054A0001650FDF746F8CA214DF21750FDF741F8A6
:1054B00002214DF21850FDF73CF800214DF2195031
:1054C000FDF737F802214DF21A50FDF732F80121AD
:1054D0004DF21B50FDF72DF802214DF21C50FDF747
:1054E00028F834214DF21D50FDF723F802214DF22A
:1054F0001E50FDF71EF867214DF21F50FDF719F8F9
:1055000002214DF22050FDF714F884214DF2215074
:10551000FDF70FF802214DF22250FDF70AF8A42101
:105520004DF22350FDF705F802214DF22450FDF70E
:1055300000F8B7214DF22550FCF7FBFF02214DF298
:105540002650FCF7F6FFCF214DF22750FCF7F1FF74
:1055500002214DF22850FCF7ECFFDE214DF22950DC
:10556000FCF7E7FF02214DF22A50FCF7E2FFF2219F
:105570004DF22B50FCF7DDFF02214DF22C50FCF7D1
:10558000D8FFFE214DF22D50FCF7D3FF03214DF241
:105590002E50FCF7CEFF10214DF22F50FCF7C9FF23
:1055A00003214DF23050FCF7C4FF33214DF231504E
:1055B000FCF7BFFF03214DF23250FCF7BAFF6D211B
:1055C0004DF23350FCF7B5FF00214FF45640FCF785
:1055D000B0FF33214DF20160FCF7ABFF00214DF22B
:1055E0000260FCF7A6FF34214DF20360FCF7A1FF37
:1055F00000214DF20460FCF79CFF3A214DF205605A
:10560000FCF797FF00214DF20660FCF792FF4A215C
:105610004DF20760FCF78DFF00214DF20860FCF7AA
:1056200088FF5C214DF20960FCF783FF00214DF2F9
:105630000A60FCF77EFF81214DF20B60FCF779FFD9
:1056400000214DF20C60FCF774FFA6214DF20D60B5
:10565000FCF76FFF00214DF20E60FCF76AFFE521B9
:105660004DF20F60FCF765FF01214DF21060FCF771
:1056700060FF13214DF21160FCF75BFF01214DF239
:105680001260FCF756FF54214DF21360FCF751FFF6
:1056900001214DF21460FCF74CFF82214DF21560A0
:1056A000FCF747FF01214DF21660FCF742FFCA21CB
:1056B0004DF21760FCF73DFF02214DF21860FCF738
:1056C00038FF00214DF21960FCF733FF02214DF243
:1056D0001A60FCF72EFF01214DF21B60FCF729FF39
:1056E00002214DF21C60FCF724FF34214DF21D60B5
:1056F000FCF71FFF02214DF21E60FCF71AFF672125
:105700004DF21F60FCF715FF02214DF22060FCF7FF
:1057100010FF84214DF22160FCF70BFF02214DF2B6
:105720002260FCF706FFA4214DF22360FCF701FF85
:1057300002214DF22460FCF7FCFEB7214DF22560FA
:10574000FCF7F7FE02214DF22660FCF7F2FECF21B6
:105750004DF22760FCF7EDFE02214DF22860FCF7C8
:10576000E8FEDE214DF22960FCF7E3FE02214DF256
:105770002A60FCF7DEFEF2214DF22B60FCF7D9FE29
:1057800002214DF22C60FCF7D4FEFE214DF22D607B
:10579000FCF7CFFE03214DF22E60FCF7CAFE10216C
:1057A0004DF22F60FCF7C5FE03214DF23060FCF78F
:1057B000C0FE33214DF23160FCF7BBFE03214DF2F8
:1057C0003260FCF7B6FE6D214DF23360FCF7B1FE9E
:1057D00055214FF47040FCF7ACFEAA214FF20100B6
:1057E000FCF7A7FE52214FF20200FCF7A2FE0821AF
:1057F0004FF20300FCF79DFE00214FF20400FCF77E
:1058000098FECC214FF43140FCF793FE00214BF27F
:105810000110FCF78EFE05214FF43640FCF789FE9F
:1058200070214FF43740FCF784FE70214BF2017079
:10583000FCF77FFE01214FF43840FCF77AFE03218C
:105840004BF60100FCF775FE03214BF60200FCF756
:1058500070FE03214BF60300FCF76BFE02214FF4B0
:105860003C40FCF766FE00214BF60140FCF761FE70
:1058700000214BF60240FCF75CFED0214FF449407A
:10588000FCF757FE02214CF60110FCF752FE5021A6
:105890004CF60210FCF74DFE50214CF60310FCF7BD
:1058A00048FE50214CF60410FCF743FE00214FF453
:1058B0005450FCF73EFE55214FF46850FCF739FE7A
:1058C0004FF48850FCF71AFE782002F0C3F94FF429
:1058D0002450FCF713FE01F05EB9FE48808849F2BF
:1058E000253188427ED147F6F001E520FCF721FE04
:1058F0004FF480710120FCF71CFE4FF4E0610220A0
:10590000FCF717FE41F230010320FCF712FE0021E4
:105910000420FCF70EFE40F202210820FCF709FEED
:1059200000210920FCF705FE00210A20FCF701FEFA
:1059300000210C20FCF7FDFD00210D20FCF7F9FDF6
:1059400000210F20FCF7F5FD00211020FCF7F1FDF0
:1059500007211120FCF7EDFD00211220FCF7E9FDE5
:1059600000211320FCF7E5FD00210720FCF7E1FDF5
:1059700041F290611020FCF7DCFD40F2272111205C
:10598000FCF7D7FD9D211220FCF7D3FD4FF4C85141
:105990001320FCF7CEFD25212920FCF7CAFD0D219F
:1059A0002B20FCF7C6FD07213020FCF7C2FD40F29A
:1059B00003313120FCF7BDFD03213220FCF7B9FD96
:1059C00040F206213520FCF7B4FD08213620FCF713
:1059D000B0FD40F206413720FCF7ABFD4FF44171BA
:1059E000382000E057E0FCF7A4FD07213920FCF740
:1059F000A0FD40F202613C20FCF79BFD08213D2008
:105A0000FCF797FD00215020FCF793FDEF2151207A
:105A1000FCF78FFD00215220FCF78BFD40F23F1177
:105A20005320FCF786FD4FF427416020FCF781FDF1
:105A300001216120FCF77DFD00216A20FCF779FD42
:105A400000218020FCF775FD00218120FCF771FD0D
:105A500000218220FCF76DFD00218320FCF769FD09
:105A600000218420FCF765FD00218520FCF761FD05
:105A700010219020FCF75DFD4FF4C0619220FCF7EF
:105A800058FD40F233110720FCF753FD222100207E
:105A9000FCF74FFD1FE78F48808849F22831884284
:105AA0007ED141F28F01EC20FCF743FD41F234211D
:105AB000EF20FCF73EFD4FF480710120FCF739FD2B
:105AC0004FF4E0610220FCF734FD41F23001032085
:105AD000FCF72FFD00210420FCF72BFD40F20221F2
